:020000040800F2
:10000000E049002099010008DF3E0008093B000894
:10001000DD3E0008C5030008D546000800000000CA
:1000200000000000000000000000000001010008C6
:10003000AF1D00080000000045010008793F0008DE
:10004000B3010008B3010008B3010008B3010008C0
:10005000B3010008B3010008B3010008B3010008B0
:10006000B3010008B3010008B3010008F50300085C
:100070004D04000859040008B30100086504000895
:10008000B3010008B301000821030008B301000810
:10009000B3010008B3010008B3010008B301000870
:1000A000B3010008B3010008B3010008B301000860
:1000B0004D40000859400008B3010008B301000892
:1000C000B3010008B3010008B3010008B301000840
:1000D000B3010008B3010008B3010008B9460008E5
:1000E000B3010008B3010008B3010008DFF80CD029
:1000F00000F0D8F800480047654E0008E0490020AD
:10010000224B19680868B0E8F00F80F30988BFF344
:100110006F8F4FF0000080F311884EF00D0E704786
:100120000000000006480068006880F3088862B696
:1001300061B6BFF34F8FBFF36F8F00DF00BF00BF0B
:1001400008ED00E0EFF30980BFF36F8F0F4B1A68E3
:1001500020E9F00F106008B54FF0500080F31188CF
:10016000BFF34F8FBFF36F8F05F064FB4FF00000BC
:1001700080F31188BDE8084019680868B0E8F00FFE
:1001800080F30988BFF36F8F704700BFAC02002077
:10019000EFF3058070470000064880470648004797
:1001A000FEE7FEE7FEE7FEE7FEE7FEE7FEE7FEE727
:1001B000FEE7FEE705400008ED000008202A04DB0A
:1001C000203A21FA02F00021704721FA02F3D040D0
:1001D000C2F12002914008431946704740EA0103EA
:1001E0009B0703D009E008C9121F08C0042AFAD2ED
:1001F00003E011F8013B00F8013B521EF9D27047B1
:10020000D2B201E000F8012B491EFBD27047002258
:10021000F6E710B513460A4604461946FFF7F0FF05
:10022000204610BD2DE9F05F0546002092469B4612
:1002300088460646814640241BE0284641464746FC
:100240002246FFF7BBFF53465A46C01A914110D3CE
:1002500011461846224600F016F82D1A67EB0108E1
:100260004F4622460120002100F00DF817EB00094F
:100270004E41201EA4F10104DFDC484631462A46E7
:100280004346BDE8F09F202A04DB203A00FA02F141
:10029000002070479140C2F1200320FA03F3194374
:1002A00090407047064C074D06E0E06840F00103BF
:1002B00094E8070098471034AC42F6D3FFF71AFFD2
:1002C000605C0008805C000870B58C1810F8015B59
:1002D00015F0070301D110F8013B2A1106D110F8DF
:1002E000012B03E010F8016B01F8016B5B1EF9D1E3
:1002F0002B0705D40023521E0DD401F8013BFAE769
:1003000010F8013BCB1A921C03E013F8015B01F8D3
:10031000015B521EF9D5A142D8D3002070BD000068
:10032000014801F02ABE00001003002070B5044609
:1003300000688168C943C9071CD1816821F00101A7
:10034000816002F011FA05460FE000BF02F00CFADE
:10035000401B022809D9A06A40F01000A062E06AA0
:1003600040F00100E062012070BD20688068C04359
:10037000C007EBD0002070BD00F0FEF866220D49EA
:100380000D4801F05BFA0B4D00240CA0295D04F030
:100390000BFB641CA4B2662CF7D3094C04F2EE35B7
:1003A0006288A11D284604F0B5F9012004F0A0FDE3
:1003B000F6E70000A8050020BC5B000825642000CB
:1003C000D2090020FEE7000010B54FF6FF72084B7F
:1003D00009E000BF10F8014B5440E4B2491E33F865
:1003E000144084EA12220029F4DCD04380B210BD0C
:1003F000A400002070B50F480068800714D50E498E
:10040000012008700D4801F007FF0D4A0D4C002037
:10041000231832F81010801C0D0A83F8D65780B2CA
:1004200083F8D717FF28F3D9BDE87040064801F0DC
:100430007DBF000000000240AA020020100300203F
:100440000C120020D209002040030020014801F0D6
:100450006DBF000064050020014801F067BF000087
:100460002005002070B51F4C00252078012804D1FC
:10047000257000211C4803F0A1F8A078012814D1B0
:100480006089401C80B260812189884208D917495F
:10049000A5706581012008700021134803F08EF8D3
:1004A0006089C10705D004F0D9FF6078012803D026
:1004B00012E004F095FFF8E7A07868B9A088401C26
:1004C00080B2A080E188491E884205DD6570A58064
:1004D0000021054803F072F8BDE87040044801F0BF
:1004E00025BF000038000020DC030020A902002006
:1004F0005C04002010B500F011F8BDE8104000F0D9
:1005000003B8704770470000024A0021024801F01A
:10051000E9BF0000030500085C040020024A012135
:10052000024801F0DFBF0000050500085C04002060
:1005300010B50C46811D4FF47A72204603F0F6F98F
:100540002068C16841F01001C16010BD30B590F85D
:1005500040500124AC40C56B6C6004686360436824
:10056000102B036803D099600068C26030BD9A60A8
:100570000068C16030BD000001490248FFF7D8BFE4
:10058000E0040020D2090020F0B5FF4F1426BC186B
:100590008B1800287ED001287DD002287CD003282B
:1005A0007BD004287AD0052879D0062878D007286F
:1005B00077D0082876D0092875D00A2874D00B285F
:1005C00073D00C2872D00D2871D00E2870D00F284F
:1005D0006FD010286ED011286DD012286CD013283F
:1005E0006BD1DD78885C2D1A05EB8505AD0095FB98
:1005F000F6F5284484F85B02DD78885C2D1A05EB5B
:100600008505AD0095FBF6F5284484F85E02DD789B
:10061000885C2D1A05EB8505AD0095FBF6F52844A1
:1006200084F86102DD78885C2D1A05EB8505AD0044
:1006300095FBF6F5284484F86402DD78885C2D1A71
:1006400005EB8505AD0095FBF6F5284484F86702B7
:10065000DD78885C2D1A05EB8505AD0095FBF6F578
:10066000284484F86A02DD78885C2D1A05EB85053C
:10067000AD0095FBF6F5284484F86D02DD78885CC2
:100680002D1A05EB8505AD0095FBF6F5284484F899
:10069000700213E08CE0B5E0D9E010E146E18AE1B8
:1006A000EDE185E2AEE226E3C0E3FDE3FDE3FDE339
:1006B000FDE3FDE3FDE3FDE3FDE378E0DD78885C49
:1006C0002D1A05EB8505AD0095FBF6F5284484F859
:1006D0007302DD78885C2D1A05EB8505AD0095FB6E
:1006E000F6F5284484F87602DD78885C2D1A05EB4F
:1006F0008505AD0095FBF6F5284484F87902DD7890
:10070000885C2D1A05EB8505AD0095FBF6F52844B0
:1007100084F87C02DD78885C2D1A05EB8505AD0038
:1007200095FBF6F5284484F87F02DD78885C2D1A65
:1007300005EB8505AD0095FBF6F5284484F88202AB
:10074000DD78885C2D1A05EB8505AD0095FBF6F587
:10075000284484F89102DD78885C2D1A05EB850524
:10076000AD0095FBF6F5284484F88E02DD78885CB0
:100770002D1A05EB8505AD0095FBF6F5284484F8A8
:100780008B02DD78885C2D1A05EB8505AD0095FBA5
:10079000F6F5284484F88802DB78885C191A01EBA6
:1007A0008101890091FBF6F1084484F88502F0BDCF
:1007B0000025401C93F803E011F802C0AEEB0C0ECC
:1007C0000EFB00FE9EFBF6FEF44405EB450EBE4418
:1007D00096446D1CEDB28EF84BC01C2DEAD3DF7829
:1007E0008D5C7F1B474397FBF6F73D4484F8C6506A
:1007F000DB78895C5A1A424392FBF6F0084484F88D
:10080000C300F0BDDD78885C2D1A6D0095FBF6F510
:10081000284484F84800DD78885C2D1A6D0095FB2B
:10082000F6F5284484F84500DD78885C2D1A6D00C3
:1008300095FBF6F5284404F8420FDB78885C191A1A
:10084000490091FBF6F1084484F87E00F0BDDD78A4
:10085000885C2D1A05EB450595FBF6F5284484F8D0
:10086000BD00DD78885C2D1A05EB450595FBF6F596
:10087000284484F8BA00DD78885C2D1A05EB45051C
:1008800095FBF6F5284484F8B700DD78885C2D1ACE
:1008900005EB450595FBF6F5284484F83F00DD7827
:1008A000885C2D1A05EB450595FBF6F5284484F880
:1008B0003C00DB78885C191A01EB410130E0DD78FF
:1008C000885C2D1AAD0095FBF6F5284484F8BD0030
:1008D000DD78885C2D1AAD0095FBF6F5284484F888
:1008E000BA00DD78885C2D1AAD0095FBF6F528443A
:1008F00084F8B700DD78885C2D1AAD0095FBF6F51D
:10090000284484F83F00DD78885C2D1AAD0095FB03
:10091000F6F5284484F83C00DB78885C191A8900D5
:1009200091FBF6F1084484F83900F0BDDD78885C6D
:100930002D1A05EB850595FBF6F52844B854DD78AE
:10094000885C2D1A05EB850595FBF6F52844E070CB
:10095000DD78885C2D1A05EB850595FBF6F52844B6
:10096000A071DD78885C2D1A05EB850595FBF6F501
:1009700028446072DD78885C2D1A05EB850595FBAF
:10098000F6F52844207301E072060020DD78885CCB
:100990002D1A05EB850595FBF6F5284484F83600FD
:1009A000DB78885C191A01EB810191FBF6F10844B0
:1009B00084F89F00F0BDDD78885C2D1A05EB4505B5
:1009C0006D0095FBF6F5284484F8C900DD78885C55
:1009D0002D1A05EB45056D0095FBF6F5284484F8C6
:1009E000A200DD78885C2D1A05EB45056D0095FBAE
:1009F000F6F5284484F8A500DD78885C2D1A05EB0F
:100A000045056D0095FBF6F5284484F8A800DD78CF
:100A1000885C2D1A05EB45056D0095FBF6F528441D
:100A200084F8AB00DD78885C2D1A05EB45056D0078
:100A300095FBF6F5284484F83300DD78885C2D1AA0
:100A400005EB45056D0095FBF6F5284484F830006C
:100A5000DD78885C2D1A05EB45056D0095FBF6F5F4
:100A6000284484F82D00DB78885C191A01EB4101D9
:100A7000490091FBF6F1084484F82A00F0BDDD78C6
:100A8000885C2D1AC5EBC50595FBF6F5284484F85E
:100A9000AE00DD78885C2D1AC5EBC50595FBF6F533
:100AA000284484F8B100DD78885C2D1AC5EBC505B3
:100AB00095FBF6F5284484F8B400DD78885C2D1A9F
:100AC000C5EBC50595FBF6F5284484F8CC00DD7828
:100AD000885C2D1AC5EBC50595FBF6F5284484F80E
:100AE000CF00DD78885C2D1AC5EBC50595FBF6F5C2
:100AF000284484F8D200DD78885C2D1AC5EBC50542
:100B000095FBF6F5284484F8D500DD78885C2D1A2D
:100B1000C5EBC50595FBF6F5284404F80F0FDD7805
:100B2000885C2D1AC5EBC50595FBF6F52844E070E9
:100B3000DD78885C2D1AC5EBC50595FBF6F52844D4
:100B4000A071DD78885C2D1AC5EBC50595FBF6F51F
:100B500028446072DD78885C2D1AC5EBC50595FBCD
:100B6000F6F528442073DD78885C2D1AC5EBC505A1
:100B700095FBF6F52844E073DD78885C2D1AC5EB0B
:100B8000C50595FBF6F528442076DD78885C2D1A9E
:100B9000C5EBC50595FBF6F528446075DB78885CE8
:100BA000191AC1EBC10191FBF6F10844A074F0BD24
:100BB000DD78885C2D1AED0095FBF6F5284404F8E5
:100BC000D80FDD78885C2D1AED0095FBF6F52844EA
:100BD000E070DD78885C2D1AED0095FBF6F5284471
:100BE000A071DD78885C2D1AED0095FBF6F52844A0
:100BF0006072DB78885C191AC90091FBF6F1084431
:100C00002073F0BDDD78885C2D1A05EBC50595FBDA
:100C1000F6F5284484F8E700DD78885C2D1A05EBAA
:100C2000C50595FBF6F5284484F8EA00DD78885C74
:100C30002D1A05EBC50595FBF6F5284484F8ED0063
:100C4000DD78885C2D1A05EBC50595FBF6F5284483
:100C500084F8F000DD78885C2D1A05EBC50595FB5E
:100C6000F6F5284484F8F300DD78885C2D1A05EB4E
:100C7000C50595FBF6F5284484F8B601DD78885C57
:100C80002D1A05EBC50595FBF6F5284484F8B90146
:100C9000DD78885C2D1A05EBC50595FBF6F5284433
:100CA00084F8BC01DD78885C2D1A05EBC50595FB41
:100CB000F6F5284484F8BF01DD78885C2D1A05EB31
:100CC000C50595FBF6F5284484F8C201DD78885CFB
:100CD0002D1A05EBC50595FBF6F5284484F8C501EA
:100CE000DB78885C191A01EBC10191FBF6F108442D
:100CF00084F8C801F0BDDD78885C2D1A05EB850508
:100D00006D0095FBF6F5284484F8F600DD78885CE4
:100D10002D1A05EB85056D0095FBF6F5284484F842
:100D2000F900DD78885C2D1A05EB85056D0095FBD3
:100D3000F6F5284484F8FC00DD78885C2D1A05EB74
:100D400085056D0095FBF6F5284484F8FF00DD78F5
:100D5000885C2D1A05EB85056D0095FBF6F528449A
:100D600084F8B301DD78885C2D1A05EB85056D00EC
:100D700095FBF6F5284484F8B001DD78885C2D1ADF
:100D800005EB85056D0095FBF6F5284484F8AD016B
:100D9000DD78885C2D1A05EB85056D0095FBF6F571
:100DA000284484F8AA01DD78885C2D1A05EB8505B6
:100DB0006D0095FBF6F5284484F8CB01DD78885C5E
:100DC0002D1A05EB85056D0095FBF6F5284484F892
:100DD000CE01DD78885C2D1A05EB85056D0095FB4D
:100DE000F6F5284484F8D101DD78885C2D1A05EBEE
:100DF00085056D0095FBF6F5284484F8D401DD786F
:100E0000885C2D1A05EB85056D0095FBF6F52844E9
:100E100084F8D701DB78885C191A01EB810149005D
:100E200091FBF6F1084484F8DA01F0BDDD78885CC6
:100E30002D1A05EB450707EBC50595FBF6F528448C
:100E400084F80201DD78885C2D1A05EB450707EB75
:100E5000C50595FBF6F5284484F80501DD78885C26
:100E60002D1A05EB450707EBC50595FBF6F528445C
:100E700084F80801DD78885C2D1A05EB450707EB3F
:100E8000C50595FBF6F5284484F80B01DD78885CF0
:100E90002D1A05EB450707EBC50595FBF6F528442C
:100EA00084F8A701DD7807E096E004E1ACE11AE2FE
:100EB0007EE2E1E281E3FAE3885C2D1A05EB450767
:100EC00007EBC50595FBF6F5284484F8A401DD7809
:100ED000885C2D1A05EB450707EBC50595FBF6F574
:100EE000284484F8A101DD78885C2D1A05EB4507BC
:100EF00007EBC50595FBF6F5284484F89E01DD78DF
:100F0000885C2D1A05EB450707EBC50595FBF6F543
:100F1000284484F8DD01DD78885C2D1A05EB45074F
:100F200007EBC50595FBF6F5284484F8E001DD786C
:100F3000885C2D1A05EB450707EBC50595FBF6F513
:100F4000284484F8E301DD78885C2D1A05EB450719
:100F500007EBC50595FBF6F5284484F8E601DD7836
:100F6000885C2D1A05EB450707EBC50595FBF6F5E3
:100F7000284484F8E901DD78885C2D1A05EB4507E3
:100F800007EBC50595FBF6F5284484F82502DD78C6
:100F9000885C2D1A05EB450707EBC50595FBF6F5B3
:100FA000284484F82802DD78885C2D1A05EB450773
:100FB00007EBC50595FBF6F5284484F82B02DB7892
:100FC000885C191A01EB410202EBC10191FBF6F1B9
:100FD000084484F82E02F0BDDD78885C2D1A05EBFC
:100FE0004505AD0095FBF6F5284484F80E01DD7843
:100FF000885C2D1A05EB4505AD0095FBF6F52844F8
:1010000084F81101DD78885C2D1A05EB4505AD00EB
:1010100095FBF6F5284484F81401DD78885C2D1AD8
:1010200005EB4505AD0095FBF6F5284484F89B01DA
:10103000DD78885C2D1A05EB4505AD0095FBF6F5CE
:10104000284484F89801DD78885C2D1A05EB450565
:10105000AD0095FBF6F5284484F8EC01DD78885C5A
:101060002D1A05EB4505AD0095FBF6F5284484F8EF
:10107000EF01DD78885C2D1A05EB4505AD0095FB89
:10108000F6F5284484F8F201DD78885C2D1A05EB2A
:101090004505AD0095FBF6F5284484F82202DB787F
:1010A000885C191A01EB4101890091FBF6F10844B3
:1010B00084F81F02F0BDDD78885C2D1A05EB8507EA
:1010C00007EBC50595FBF6F5284484F81701DD7894
:1010D000885C2D1A05EB850707EBC50595FBF6F532
:1010E000284484F81A01DD78885C2D1A05EB850701
:1010F00007EBC50595FBF6F5284484F81D01DD785E
:10110000885C2D1A05EB850707EBC50595FBF6F501
:10111000284484F89501DD78885C2D1A05EB850755
:1011200007EBC50595FBF6F5284484F89201DD78B8
:10113000885C2D1A05EB850707EBC50595FBF6F5D1
:10114000284484F88F01DD78885C2D1A05EB85072B
:1011500007EBC50595FBF6F5284484F88C01DD788E
:10116000885C2D1A05EB850707EBC50595FBF6F5A1
:10117000284484F88901DD78885C2D1A05EB850701
:1011800007EBC50595FBF6F5284484F8F501DD78F5
:10119000885C2D1A05EB850707EBC50595FBF6F571
:1011A000284484F8F801DD78885C2D1A05EB850762
:1011B00007EBC50595FBF6F5284484F8FB01DD78BF
:1011C000885C2D1A05EB850707EBC50595FBF6F541
:1011D000284484F8FE01DD78885C2D1A05EB85072C
:1011E00007EBC50595FBF6F5284484F81C02DB786F
:1011F000885C191A01EB810202EBC10191FBF6F147
:10120000084484F81902F0BDDD78885C2D1AC5EB1E
:10121000C5056D0095FBF6F5284484F82001DD78BE
:10122000885C2D1AC5EBC5056D0095FBF6F52844C5
:1012300084F82301DD78885C2D1AC5EBC5056D00A7
:1012400095FBF6F5284484F82601DD78885C2D1A94
:10125000C5EBC5056D0095FBF6F5284484F829011A
:10126000DD78885C2D1AC5EBC5056D0095FBF6F59C
:10127000284484F88601DD78885C2D1AC5EBC50505
:101280006D0095FBF6F5284484F88301DD78885CD1
:101290002D1AC5EBC5056D0095FBF6F5284484F8BD
:1012A0008001DD78885C2D1AC5EBC5056D0095FBC6
:1012B000F6F5284484F80102DD78885C2D1AC5EB28
:1012C000C5056D0095FBF6F5284484F80402DB782B
:1012D000885C191AC1EBC101490091FBF6F1084481
:1012E00084F80702F0BDDD78885C2D1AC5EB051582
:1012F00095FBF6F5284484F82C01DD78885C2D1ADE
:10130000C5EB051595FBF6F5284484F82F01DD782B
:10131000885C2D1AC5EB051595FBF6F5284484F875
:101320003201DD78885C2D1AC5EB051595FBF6F5C5
:10133000284484F83501DD78885C2D1AC5EB051545
:1013400095FBF6F5284484F87D01DD78885C2D1A3C
:10135000C5EB051595FBF6F5284484F87A01DD7890
:10136000885C2D1AC5EB051595FBF6F5284484F825
:101370007701DD78885C2D1AC5EB051595FBF6F530
:10138000284484F80A02DD78885C2D1AC5EB05151F
:1013900095FBF6F5284484F80D02DB78885C191A71
:1013A000C1EB011191FBF6F1084484F81002F0BD85
:1013B000DD78885C2D1A2D0195FBF6F5284484F81C
:1013C0003801DD78885C2D1A2D0195FBF6F528444F
:1013D00084F83B01DD78885C2D1A2D0195FBF6F52C
:1013E000284484F83E01DD78885C2D1A2D0195FB98
:1013F000F6F5284484F84101DD78885C2D1A2D012A
:1014000095FBF6F5284484F87401DD78885C2D1A84
:101410002D0195FBF6F5284484F81302DD78885CED
:101420002D1A2D0195FBF6F5284484F81602DD7877
:10143000885C2D1A2D0195FBF6F5284484F83102BD
:10144000DD78885C2D1A2D0195FBF6F5284484F88B
:101450003402DD78885C2D1A2D0195FBF6F52844C1
:1014600084F83702DB78885C191A090191FBF6F1E0
:10147000084484F83A02F0BDDD78885C2D1A05EB4B
:10148000051595FBF6F5284484F84401DD78885C61
:101490002D1A05EB051595FBF6F5284484F8470150
:1014A000DD78885C2D1A05EB051595FBF6F52844CB
:1014B00084F84A01DD78885C2D1A05EB051595FB4B
:1014C000F6F5284484F84D01DD78885C2D1A05EB8B
:1014D000051595FBF6F5284484F87101DD78885CE4
:1014E0002D1A05EB051595FBF6F5284484F86E01D9
:1014F000DD78885C2D1A05EB051595FBF6F528447B
:1015000084F86B01DD78885C2D1A05EB051595FBD9
:10151000F6F5284484F86801DD78885C2D1A05EB1F
:10152000051595FBF6F5284484F86501DD78885C9F
:101530002D1A05EB051595FBF6F5284484F8620194
:10154000DD78885C2D1A05EB051595FBF6F528442A
:1015500084F83D02DD78885C2D1A05EB051595FBB6
:10156000F6F5284484F84002DD78885C2D1A05EBF6
:10157000051595FBF6F5284484F84302DD78885C70
:101580002D1A05EB051595FBF6F5284484F846025F
:10159000DD78885C2D1A05EB051595FBF6F52844DA
:1015A00084F8AC02DB78885C191A01EB011191FB1D
:1015B000F6F1084484F8AF02F0BDDD78885C2D1A9E
:1015C00005EBC5056D0095FBF6F5284484F8500140
:1015D000DD78885C2D1A05EBC5056D0095FBF6F5E9
:1015E000284484F85301DD78885C2D1A05EBC50585
:1015F0006D0095FBF6F5284484F85F01DD78885C82
:101600002D1A05EBC5056D0095FBF6F5284484F809
:101610005C01DD78885C2D1A05EBC5056D0095FB36
:10162000F6F5284484F84902DD78885C2D1A05EB2C
:10163000C5056D0095FBF6F5284484F84C02DD786D
:10164000885C2D1A05EBC5056D0095FBF6F5284461
:1016500084F84F02DD78885C2D1A05EBC5056D0016
:1016600095FBF6F5284484F8A902DD78885C2D1AEC
:1016700005EBC5056D0095FBF6F5284484F8A60238
:10168000DD78885C2D1A05EBC5056D0095FBF6F538
:10169000284484F8A302DB78885C191A01EBC101A5
:1016A000490091FBF6F1084484F8A002F0BDFFE781
:1016B000DD78885C2D1A05EB450707EB051595FBD2
:1016C000F6F5284484F85901DD78885C2D1A05EB7D
:1016D000450707EB051595FBF6F5284484F85601F8
:1016E000DD78885C2D1A05EB450707EB051595FBA2
:1016F000F6F5284484F85202DD78885C2D1A05EB53
:10170000450707EB051595FBF6F5284484F85502C7
:10171000DD78885C2D1A05EB450707EB051595FB71
:10172000F6F5284484F85802DD78885C2D1A05EB1C
:10173000450707EB051595FBF6F5284484F89D024F
:10174000DD78885C2D1A05EB450707EB051595FB41
:10175000F6F5284484F89A02DD78885C2D1A05EBAA
:10176000450707EB051595FBF6F5284484F8970225
:10177000DB78885C191A01EB410202EB011191FB45
:10178000F6F1084484F8940290E7000038B5154C4F
:101790000021E080144801F011FF1448416941F034
:1017A00001014161406900F001000090202002F039
:1017B000A9FBFEF79FFE012060700020A0801D2184
:1017C00004F10C0222F81010401C80B23028F9D32A
:1017D00001B0044ABDE8304030230C3200210248F9
:1017E00001F07ABE38000020DC0300200010024027
:1017F00008B500210D4801F0E1FE0D48416941F0B6
:1018000001014161406900F001000090002002F0F8
:1018100079FB084901203223087001B0064A0021F3
:1018200002485DF804EB01F057BE0000DC03002025
:1018300000100240380000200E0600200B46014632
:101840001846FEF7CBBCFEF7C9BC000038B5114CFA
:1018500000212081104801F0B1FE1048416941F09B
:1018600001014161406900F001000090202002F078
:1018700049FBFEF73FFE022000F0B0FA0120A07005
:10188000608101B03023BDE83040054A00210248A4
:1018900001F022BE38000020DC03002000100240CE
:1018A0007209002070B50D4606460024E2B22946B2
:1018B0003046FEF769FE641CA4B2032CF6D370BD5B
:1018C0002DE9F0418846064640F6B8311148FEF74A
:1018D0009EFC0024C6EB061045004FF47A77E0B278
:1018E0004146FFF7DFFFFFF783FF012003F000FB16
:1018F0003046FFF7ABFFB5FBF7F0401C03F0F8FAFA
:101900001E2003F0F5FA641CA4B2142CE7D3BDE842
:10191000F08100007206002010B50446FFF768FF52
:10192000012003F0E5FA2046FFF790FFC4EB041016
:1019300040004FF47A71B0FBF1F0BDE81040401C5C
:1019400003F0D6BA2DE9F04FF94B01280ED002284A
:1019500026D04FF0060B4FF01C0E4FF00E0A032856
:1019600036D0042854D0052875D04EE00020451C00
:10197000002400EB4000C618105D0F5DC01B6843DB
:101980004FEAE07C00EB9C7007EBA0003055641C34
:10199000E4B2032CF0D3E8B20428E8D3BDE8F08F1A
:1019A0000424002004EB4405EE18155C0F5CED1BCD
:1019B0004FEAE57C05EB9C7507EBA5053554401C0B
:1019C000C0B20328F1D3641CE4B2052CE9D3E5E7E7
:1019D00005245F46002504EB440C261F0CEB03098D
:1019E00012F8058011F805C0A8EB0C0808FB06F8F2
:1019F00098FBF7F8C44409F805C06D1CEDB2032D3F
:101A0000EED3641CE4B20B2CE4D3062844D01EE0D1
:101A10000B24574604EB440C0025A4F10A060CEBFA
:101A2000030900BF12F8058011F805C0A8EB0C08E7
:101A300008FB06F898FBF7F8C44409F805C06D1CCC
:101A4000EDB2032DEED3641CE4B2192CE2D30728C7
:101A500043D01EE0FFE71924774604EB440C002531
:101A6000A4F118060CEB030912F8058011F805C063
:101A7000A8EB0C0808FB06F898FBF7F8C44409F833
:101A800005C06D1CEDB2032DEED3641CE4B2352C01
:101A9000E3D3082842D01DE0352404EB440600259A
:101AA000A4F1340706EB0309565D11F805C0A6EB57
:101AB0000C067E434FEAE67806EB58760CEBE6061A
:101AC00009F805606D1CEDB2032DEDD3641CE4B282
:101AD0003D2CE2D3092842D01DE03D245F4604EBB3
:101AE000440C0025A4F13C060CEB030912F8058018
:101AF00011F805C0A8EB0C0808FB06F898FBF7F8EE
:101B0000C44409F805C06D1CEDB2032DEED3641C6E
:101B1000E4B2432CE3D30A2842D01DE043244FF023
:101B2000130C04EB44070025A4F1420607EB03095C
:101B300012F805804F5DA8EB070808FB06F898FB34
:101B4000FCF8474409F805706D1CEDB2032DEFD386
:101B5000641CE4B2562CE4D30B2842D01DE056247A
:101B6000774604EB440C0025A4F155060CEB030961
:101B700012F8058011F805C0A8EB0C0808FB06F860
:101B800098FBF7F8C44409F805C06D1CEDB2032DAD
:101B9000EED3641CE4B2722CE3D30C2843D01DE0D6
:101BA00072244FF00A0C04EB44070025A4F17106DF
:101BB00007EB030912F805804F5DA8EB070808FB47
:101BC00006F898FBFCF8474409F805706D1CEDB267
:101BD000032DEFD3641CE4B27C2CE4D30D2844D055
:101BE0001EE07C244FF0160C04EB44070025A4F102
:101BF0007B0607EB030900BF12F805804F5DA8EBD9
:101C0000070808FB06F898FBFCF8474409F805703C
:101C10006D1CEDB2032DEFD3641CE4B2922CE3D320
:101C20000E2844D01EE092244FF0210C04EB440710
:101C30000025A4F1910607EB030900BF12F8058007
:101C40004F5DA8EB070808FB06F898FBFCF8474433
:101C500009F805706D1CEDB2032DEFD3641CE4B2DE
:101C6000B32CE3D30F2865D01EE0B3244FF0050C4E
:101C700004EB44070025A4F1B20607EB030900BFFB
:101C800012F805804F5DA8EB070808FB06F898FBE3
:101C9000FCF8474409F805706D1CEDB2032DEFD335
:101CA000641CE4B2B82CE3D3102862D01EE0B82440
:101CB0004FF0030C04EB44070025A4F1B70607EB33
:101CC000030900BF12F805804F5DA8EB070808FB69
:101CD00006F898FBFCF8474409F805706D1CEDB256
:101CE000032DEFD3641CE4B2BB2CE3D311287FF4A3
:101CF0006EAED720564600EB40070024A0F1D60573
:101D000007EB030C12F804800F5DA8EB070808FB33
:101D100005F898FBF6F847440CF80470641CE4B22C
:101D2000032CEFD3401CC0B2E528E4D336E601E033
:101D300072060020BB20564600EB40070024A0F1AD
:101D4000BA0507EB030C00BF12F804800F5DA8EB87
:101D5000070808FB05F898FBF6F847440CF80470F0
:101D6000641CE4B2032CEFD3401CC0B2C928E3D3F7
:101D700014E6C920564600EB40070024A0F1C80530
:101D800007EB030C12F804800F5DA8EB070808FBB3
:101D900005F898FBF6F847440CF80470641CE4B2AC
:101DA000032CEFD3401CC0B2D728E4D3F6E570472C
:101DB000094C2079022804D0032805D0042803D038
:101DC00005E06078012802D1E520FFF7A5FD01209C
:101DD00003F08EF8EDE70000A40200202DE9F047A3
:101DE00000244FF03D09224B4FF01D0A3CE000BF9C
:101DF000204E04EB44029119B75C4D788E78002197
:101E000001E008290CD25FEA056C01EBC20802D59B
:101E100023F8189001E023F818A06D062D0E1DE0A0
:101E2000A1F1080CBCF1080F0CD25FEA076C01EBC2
:101E3000C20802D523F8189001E023F818A07F0605
:101E40003F0E0BE05FEA066C01EBC20802D523F8F7
:101E5000189001E023F818A07606360E491C89B2C6
:101E60001829CED3641CA4B28442C1D3BDE8F08744
:101E7000720900207206002070470000F8B50024A7
:101E8000009490F824202546012A12D0012280F8DF
:101E900024204A681F23072A0DD20668776B521E3A
:101EA00002EB820293409F430B6893401F4377638A
:101EB00019E00220F8BD06680D2A0AD2376BD21F3E
:101EC00002EB820293409F430B6893401F433763AA
:101ED00009E0F76A0D3A02EB820293409F430B68D8
:101EE00093401F43F7620A68072306680A2A0AD349
:101EF000F7680A3A02EB420293409F438B68934093
:101F00001F43F76008E0376902EB420293409F43AA
:101F10008B6893401F4337610A68102A01D0112A49
:101F200020D1124B02689A4217D193681B0219D430
:101F3000936843F4000393600968102912D10C4997
:101F40000C4A0968B1FBF2F101EB8101490000E0A4
:101F5000491E00910029FBD104E0816A41F0200173
:101F60008162012480F824502046F8BD00240140FD
:101F70003000002040420F00704710B50446006852
:101F80004168890626D50168890723D5A16AC90653
:101F900003D4A16A41F40071A1628168C1F3424196
:101FA000072910D1E16871B9416821F02001416031
:101FB000A06A20F48070A062A06AC00403D4A06A62
:101FC00040F00100A0622046FFF7D6FF21686FF0C5
:101FD000120008602068416809062ED5016849078B
:101FE0002BD5A16AC90603D4A16A41F40051A162AC
:101FF0008168C1F30231072909D04168490515D428
:102000008168C1F34241072910D1E16871B9416883
:1020100021F080014160A06A20F48050A062A06A93
:10202000C00503D4A06A40F00100A0622046FFF77B
:1020300023FF21686FF00C000860206841684906A2
:102040000DD50068C0070AD0A06A40F48030A062B5
:10205000204600F093F821686FF00100086010BD81
:102060002DE9F0414FF0000704003D467ED0A06A04
:10207000002628B9E66284F82460204600F080F843
:102080002046FEF753F9A16AC90600D420B1A06A20
:1020900040F01000A06269E0A16A21F4885141F08B
:1020A0000201A1626268E169E3680A4347EA430109
:1020B0000A43A1684FF48077B94209D0012907D0BB
:1020C0005FF00001D4F814C0BCF1010F02D00AE0A7
:1020D0003946F7E7F3B1A36A43F02003A362E36A4A
:1020E00043F00103E3622368D3F804C02CF4694C85
:1020F0004CEA010CC3F804C021688B68DFF870C09B
:1021000003EA0C0313438B60A168B9420BD0012989
:1021100009D00CE0DFF85CC0A3690CEB43330B4340
:1021200043F40061DFE7218A0D05A5F580152168DC
:10213000CB6A23F470032B43CB62216889680E4B72
:102140001940914208D1E662A16A21F0020141F0F2
:102150000101A162BDE8F081A06A20F0020040F018
:102160001000A062E06A40F00100E0620120F1E7A7
:10217000FDF7E1FF00E0FFFFFE0E1FFF70470000CC
:1021800030B505460068184985B0884229D11748FE
:10219000816941F4007181618069694600F40070D1
:1021A00004900120009003200190114800F0F8F9FC
:1021B000114C10488021206000206060C4E90201B9
:1021C00049002161890061612021C4E9061020468F
:1021D00000F056F918B1852108A002F0E3FB2C624B
:1021E000656205B030BD00000024014000100240CF
:1021F0000008014008000240400300202E2E2F530B
:1022000072632F73746D3332663178785F68616CF6
:102210005F6D73702E63000010B5044690F82400C3
:10222000012807D0012084F824002046FEF77EF81C
:1022300010B10EE0022010BD2068816821F4807189
:102240008160206A00F00EF8A16A30B141F04001CF
:10225000A162002184F8241010BD21F4885141F0BE
:102260000101F5E701680A6822F00E020A600168C0
:102270000A6822F001020A6090F84020C36B012135
:1022800001FA02F25A6080F82110002180F8201033
:102290000846704710B590F821100024022903D099
:1022A0000421816301243DE001680A6822F00E02E6
:1022B0000A6001680A6822F001020A601A4A01688D
:1022C000914201D1012121E0174A1432914201D1FA
:1022D00010211BE0144A2832914201D1891515E0E2
:1022E000114A3C32914201D189140FE00E4A50321A
:1022F000914202D14FF4803108E00B4A643291429E
:1023000002D14FF4801101E04FF08071064A083A83
:102310005160012180F82110002180F82010416BCC
:1023200001B18847204610BD080002402DE9F05F4A
:10233000C16B0C6801680B68D0F840C0042202FA37
:102340000CF2494DDFF824A1494E4A4FDFF828B17D
:10235000DFF828E122422CD05A072AD50A689206D3
:1023600003D40A6822F004020A600168A94201D17C
:10237000042219E0514501D1402215E0B14202D1B9
:102380004FF4806210E0B94202D14FF480420BE07A
:10239000594502D14FF4802206E0714502D14FF435
:1023A000800201E04FF080622F4908394A60C16A1B
:1023B0003BE04FF0020808FA0CF818EA040F4FF05F
:1023C00000094FF0010235D05FEA837832D50B68FF
:1023D0009B0605D40B6823F00A030B6080F82120CC
:1023E0000168A94201D1022219E0514501D1202200
:1023F00015E0B14202D14FF4007210E0B94202D1AF
:102400004FF400520BE0594502D14FF4003206E080
:10241000714502D14FF4001201E04FF000721249F1
:1024200008394A6080F82090816A00291AD0BDE8F6
:10243000F05F0847082505FA0CF5254212D01B0766
:1024400010D50B6823F00E030B6090F84010C36B9F
:1024500002FA01F15960826380F8212080F820900F
:10246000016BE2E7BDE8F09F080002401C0002405B
:102470003000024044000240580002406C0002401C
:1024800030B548B308C8154914221944B1FBF2F11C
:102490008900C16312498163022141771A6843F6BA
:1024A000F0718A43D0E900142143D0E902452C435E
:1024B0002143046921434469214384692143114331
:1024C0001960002141628162C1620163416301229E
:1024D00042770177084630BD012030BDF8FFFDBFCF
:1024E0000000024010B590F820400023012C07D0D6
:1024F000012480F8204090F82140012C02D008E00F
:10250000022010BD59B101290BD002290BD003299B
:102510000BD00123002180F82010184610BD8262E4
:10252000F8E7C262F6E70263F4E74263F2E770B5E8
:10253000044690F82000002501280CD0012084F8E2
:10254000200094F821600020012E06D084F820009D
:102550000225284670BD022070BD022684F8216045
:10256000A0632068066826F0010606602046FDF795
:10257000EDFFE06A00282068016802D041F00E01FA
:1025800006E021F0040101602068016841F00A01C1
:1025900001602068016841F001010160D9E7000095
:1025A0002DE9F84FDFF890A100220AF1040B144640
:1025B00001274FF00F090BF1040E00BF0B6807FA5B
:1025C00004F52B40AB4274D1DFF870C14E68A6EB26
:1025D0000C0866452BD00DDC032E34D005DC36B359
:1025E000012E19D0022E2FD11BE0112E16D0122E43
:1025F0002AD119E0B8F5881F19D006DCB8F5803F5C
:1026000015D0B8F5801F1FD111E0B8F5001F0ED00E
:10261000B8F5041F18D10AE0CA6815E0CA68121D8F
:1026200012E0CA6808320FE0CA680C320CE08A680F
:102630002AB1012A4FF0080203D0456104E00422C8
:1026400002E0056100E00022FF2B01D8064601E010
:1026500000F104064FEA840501D9A5F12005D6F85A
:1026600000C009FA05F82CEA080C02FA05F54CEA54
:10267000050CC6F800C04D68ED0057D5304DAE6969
:1026800046F00106AE61AD6924F0030605F00105D0
:1026900000952C4D06EB050CDCF80850A6074FEA18
:1026A000167809FA08F6B543274EB04202D1002643
:1026B00010E03BE0254EB04201D101260AE0244E55
:1026C000B04201D1022605E0224EB04201D10326DC
:1026D00000E0042606FA08F62E43CCF808604D68A0
:1026E000DAF80060ED03554601D51E4300E09E4335
:1026F0002E604D68DBF80060AD035D4601D51E43DA
:1027000000E09E432E604D68DEF80060ED027546E5
:1027100001D51E4300E09E432E604D68AD020E4D74
:102720002E6801D51E4300E09E432E60641C102CD1
:10273000FFF444AFBDE8F88F000401400000111021
:10274000001002400000014000080140000C014060
:1027500000100140001401400C0401400AB1016165
:1027600070470904FBE7000001480068704700005B
:102770003400002002480168491C016070470000D5
:1027800034000020074810B5016841F010010160D5
:10279000032000F08BF80F2000F006F800F018F886
:1027A000002010BD0020024010B5044607484FF439
:1027B0007A710068B0FBF1F000F016FC00222146AF
:1027C000501E00F053F8002010BD00003000002023
:1027D0001E4808B5816941F001018161806900F0FE
:1027E00001000090032000F061F8002211466FF014
:1027F0000B0000F03BF8002211466FF00A0000F0D9
:1028000035F8002211466FF0090000F02FF8002281
:102810001146501F00F02AF800221146101F00F048
:1028200025F800220F21901E00F020F800220F2131
:10283000501E00F01BF80648416821F0E06141603D
:10284000416841F00071416008BD00000010024085
:102850000000014000F01F0201219140400980006A
:1028600000F1E020C0F8001170470000F0B40E4BFA
:102870001B680C46C3F30223C3F10705042D00D9DE
:102880000425191D072901D2002300E0DB1E0126C3
:1028900006FA05F1491E214099409E40761E1640D9
:1028A0003143F0BC01F01DBB0CED00E0064900F027
:1028B000070208684FF6FF03184040EA0220034A67
:1028C00010430860704700000CED00E00000FA05BE
:1028D0002DE9F84305460078354CC00754D0E0692F
:1028E0000026C00008D4E06940F08050E061E06953
:1028F000012600F0805000902E480168C90512D4CE
:102900000168804641F480710160FFF72DFF0746A2
:1029100005E000BFFFF728FFC01B642823D8D8F8C4
:102920000000C005F6D5206A10F4407021D0A988B7
:1029300001F4407181421CD0206A1F49012220F419
:1029400040700A6000220A602062C00711D0FFF7C1
:102950000BFF074641F2883808E000BFFFF704FF8D
:10296000C11B414502D90320BDE8F883206A8007D6
:10297000F4D5206A696820F44070084320621EB1D3
:10298000E06920F08050E0612878800705D5606814
:10299000A96820F44040084360602878C00605D547
:1029A0006068E96820F48000084360600020DBE78D
:1029B0000010024000700040400442427047000096
:1029C0002DE9F047DFF83C8105460E46D8F80000B7
:1029D00000F00700B0420CD2D8F8001021F0070137
:1029E0003143C8F80010D8F8000000F00700B042EA
:1029F00063D12878444C800705D56068A96820F029
:102A0000F000084360602878C00745D06868012856
:102A100016D02168022816D0890700294DDA61688E
:102A200021F0030101436160FFF79EFE69680746DC
:102A300041F2883001290FD00229814619D027E0C0
:102A400021688903E9E78901E7E700BFFFF78CFE0A
:102A5000C11B494501D918E081466068C0F3810077
:102A60000128F3D118E000BFFFF77EFEC11B4945E6
:102A70000BD86068C0F381000228F5D10CE000BFDC
:102A8000FFF772FEC11B494502D90320BDE8F0875C
:102A9000606810F00C0FF3D1D8F80010404601F038
:102AA0000701B1420BD9016821F0070131430160F0
:102AB000006800F00700B04201D00120E6E7287866
:102AC000400705D56068E96820F4E060084360606D
:102AD0002878000706D56068296920F4605040EA2C
:102AE000C100606000F042F86168084AC1F3031158
:102AF000515CC840064908600F20FFF755FE0020D2
:102B0000C4E700000020024000100240225C0008E0
:102B10003000002001490120C86470470000424293
:102B20000148006870470000300000200448054953
:102B300000684968044AC1F30221515CC8407047EB
:102B40003000002000100240325C000804480549B3
:102B500000684968044AC1F3C221515CC84070470B
:102B60003000002000100240325C000810B512A3B3
:102B700085B00FCB8DE80F0013A0144B00680490B4
:102B80005A68134802F00C0104290FD008290DD10E
:102B9000C2F38344D2031DF8041009D55A6804AB6C
:102BA000C2F340429A5CB0FBF2F0484305B010BD5E
:102BB00008484843FAE7000002030405060708092D
:102BC0000A0B0C0D0E0F1010010200000010024045
:102BD00000127A0000093D0010B5044CA068000600
:102BE00003D5FFF7EBFE8020A07210BD001002405D
:102BF0002DE9F84F04460078B94DC00748D0686801
:102C0000C0F38100012807D06868C0F38100022862
:102C100009D16868C00306D52868800338D5606884
:102C200000286FD034E06068B0F5803F0BD010B161
:102C3000B0F5A02F11D0286820F4803028602868D3
:102C400020F4802002E0286840F48030286060682A
:102C500088B1FFF789FD064609E0286840F4802026
:102C60002860F0E7FFF780FD801B642875D828688E
:102C70008003F7D50CE0FFF777FD064605E000BFBF
:102C8000FFF772FD801B6428F0D828688003F7D412
:102C90002078944E80074FF001094FF000083BD593
:102CA000686810F00C0F07D06868C0F38100022834
:102CB00009D16868C00306D42868800714D5206944
:102CC00001281FD110E02069B0B1C6F80090FFF7CD
:102CD0004BFD074605E000BFFFF746FDC01B02287D
:102CE000C4D828688007F7D52868616920F0F80003
:102CF00040EAC10028600FE0C6F80080FFF734FD0D
:102D0000074606E0E9E000BFFFF72EFDC01B0228E2
:102D100023D828688007F7D4207800072CD572487C
:102D2000A169D9B1C0F80090FFF71EFD074604E085
:102D3000FFF71AFDC01B02280FD8686A8007F7D575
:102D40006A484FF4FA510068B0FBF1F0009000BF00
:102D50000098411E0091FAD20EE080E0C0F8008099
:102D6000FFF702FD074604E0FFF7FEFCC01B022848
:102D700075D8686A8007F7D42078400760D5E8697D
:102D80000027C00008D4E86940F08050E861E86995
:102D9000012700F08050009055480168C90513D400
:102DA0000168834641F480710160FFF7DDFC8246D3
:102DB00006E000BFFFF7D8FCA0EB0A0064284ED85D
:102DC000DBF80000C005F5D5E06801280AD008B19D
:102DD000052813D0286A20F001002862286A20F014
:102DE000040002E0286A40F001002862E06841F235
:102DF000883B98B1FFF7B8FC82460BE0286A40F0A8
:102E000004002862EEE700BFFFF7AEFCA0EB0A016A
:102E100059455AD8286A8007F6D50CE0FFF7A4FC7C
:102E2000824605E0FFF7A0FCA0EB0A0159454CD80B
:102E3000286A8007F6D41FB1E86920F08050E86165
:102E4000E06988B36968C1F38101022945D002288D
:102E5000C6F8608004D0FFF787FC044638E034E011
:102E6000FFF782FC074604E0FFF77EFCC01B022848
:102E70002BD828688001F7D4206AB0F5803F05D1AF
:102E80006868A16820F4003008436860D4E908014C
:102E90000843696821F4741108436860C6F86090BB
:102EA000FFF762FC044606E015E000BFFFF75CFC9C
:102EB000001B022809D828688001F7D50BE000BF65
:102EC000FFF752FC001B022802D90320BDE8F88F4F
:102ED00028688001F4D40020F8E70120F6E700001C
:102EE00000100240000042428004424230000020B4
:102EF0000070004070B5040005D00025A56294F86C
:102F0000510010B104E0012070BD204600F034F8FB
:102F1000022084F851002068016821F0400101601E
:102F2000D4E901010843D4E903121143084361695C
:102F30000843218B01F400710843E1690843216AC9
:102F40000843A16A084321680860A069042101EAD6
:102F50001040616A0843216848602168E06A08619E
:102F60002068C16921F40061C1616565012084F8B0
:102F70005100002070BD000010B50068114986B0F6
:102F800088421CD11048816941F480518161806977
:102F90000E4C00F480500490A0200090022001907C
:102FA0000320039069462046FFF7FAFA00214020EB
:102FB000CDE90001029169462046FFF7F1FA06B01B
:102FC00010BD000000300140001002400008014028
:102FD0004FF0E0210428086903D020F004000861C4
:102FE000704740F00400FAE710B5401EB0F1807F52
:102FF00001D3012010BD4FF0E02460610F21601764
:1030000000F06FFF0020A06107202061002010BDAC
:103010007047704730B590F83C20012A20D001223B
:1030200080F83C20022380F83D3003685C6824F07F
:1030300070045C6003685C680D682C435C60036826
:103040009C6824F080049C6003689C6849680C4379
:103050009C6080F83D20002180F83C10084630BD7F
:10306000022030BD10B5040003D094F83D0010B12B
:1030700007E0012010BD002084F83C00204600F04D
:103080000DF8022084F83D00211D206800F0EAFFC1
:10309000012084F83D00002010BD000038B5054631
:1030A00000681949B0F1804F0BD0184A904207D1FF
:1030B000C86940F00200C861C86900F002000090D1
:1030C00038BDC86940F00100C861C869114C00F002
:1030D000010000900E4820601020606000208021D8
:1030E000C4E90201490021618900C4E90510880092
:1030F000E0612046FFF7C4F918B1FF2106A001F0F6
:1031000051FC6C62656238BD001002400004004052
:10311000580002405C0400202E2E2F5372632F7340
:10312000746D3332663178785F68616C5F6D73708F
:103130002E63000070B5044690F83C00012817D0BB
:10314000012584F83C50022084F83D002068826804
:1031500022F0770222F47F4282600868502837D03C
:103160000DDC202859D005DC88B3102841D151E06E
:10317000022070BD302853D040283AD13FE060286B
:103180002ED070280BD0B0F5805F03D0B0F5005F73
:103190002FD110E02068816821F0070115E0CB688D
:1031A000D1E90121206800F0C5FF2168886840F05E
:1031B000770088601DE0CB68D1E90121206800F02C
:1031C000B9FF2068816841F48041816011E01EE010
:1031D000CA684968206801F061F85021206806E05B
:1031E000CA684968206801F06AF86021206800F028
:1031F000ABFF84F83D50002084F83C0070BDCA68E5
:103200004968206801F04AF840212068EFE7002172
:103210002068ECE710212068E9E720212068E6E734
:1032200030212068E3E77047704770B504460068B6
:1032300001694FF00005C943890715D4C168C94326
:10324000890711D4E91E0161012020772068806977
:103250008007204602D0FFF7E7FF04E000F0B6F851
:10326000204600F038F9257720680169C9434907ED
:1032700017D4C168C943490713D46FF00401016131
:10328000022020772068806910F4407F204602D019
:10329000FFF7CAFF04E000F099F8204600F01BF9A0
:1032A000257720680169C943090716D4C168C94355
:1032B000090712D46FF0080101610420207720680B
:1032C000C0698007204602D0FFF7AEFF04E000F09F
:1032D0007DF8204600F0FFF8257720680169C94392
:1032E000C90617D4C168C943C90613D46FF01001C9
:1032F0000161082020772068C06910F4407F2046D3
:1033000002D0FFF791FF04E000F060F8204600F0E3
:10331000E2F8257720680169C943C90708D1C16867
:10332000C943C90704D1891E0161204600F088F90C
:1033300020680169C943090609D4C168C94309065F
:1033400005D46FF0800101612046FFF761FE20681F
:103350000169C943490609D4C168C943490605D46E
:103360006FF040010161204600F06BF920680169AF
:10337000C94389060BD4C168C943890607D46FF0D5
:10338000200101612046BDE87040FFF742BE70BDDC
:103390001FB50068B0F1804F12D14FF4004000908B
:1033A00002200190039069460648FFF7F9F80648A5
:1033B000416821F440714160416841F4807141608D
:1033C0001FBD00000008014000000140704770B5BB
:1033D000044690F83C000D4601280DD0012684F8E3
:1033E0003C60022084F83D0042B1042A18D0082A2B
:1033F0002AD00C2A4DD139E0022070BD206800F09F
:10340000ABFE2068816941F0080181612068816913
:1034100021F004018161206881692A69114311E06A
:10342000206800F0C1FE2068816941F4006181617B
:103430002068816921F480618161206881692A693D
:1034400041EA0221816124E0206800F0D9FE206871
:10345000C16941F00801C1612068C16921F004011E
:10346000C1612068C1692A69114311E0206800F038
:10347000F3FE2068C16941F40061C1612068C1693F
:1034800021F48061C1612068C1692A6941EA022191
:10349000C16184F83D60002084F83C0070BD10B527
:1034A000040003D094F83D0010B107E0012010BDE6
:1034B000002084F83C00204600F00CF8022084F83C
:1034C0003D00211D206800F0CDFD012084F83D0065
:1034D000002010BD7047704770B5044690F83D005D
:1034E00016460D46022805D094F83D00012805D166
:1034F0000EB903B170BD022084F83D002C482D495F
:1035000035B1042D13D0082D34D00C2D1ED140E040
:10351000626A9062606A0163226831463432606A8E
:10352000FFF705F82068C16841F400710DE0A26A58
:103530009062A06A0163226831463832A06AFEF7C1
:10354000F6FF2068C16841F48061C160012229460C
:10355000206800F0BDFD18492068884203D1416C05
:1035600041F4004141642068016841F001010160BB
:10357000002070BDE26A9062E06A01632268314611
:103580003C32E06AFEF7D3FF2068C16841F4006175
:10359000DBE7226B9062206B016322683146403288
:1035A000206BFEF7C4FF2068C16841F48051CCE76E
:1035B000E740000825410008002C014010B50268D2
:1035C000044631B1042908D008292FD00C2908D18C
:1035D00030E0D06820F4007002E0D06820F4806011
:1035E000D0600022206800F073FD144B41F21111ED
:1035F00020688A10984209D1036A0B4206D1036AF7
:10360000134203D1436C23F4004343642068036AEC
:103610000B4206D1016A114203D1016821F0010178
:103620000160012084F83D00002010BDD06820F426
:103630000060D5E7D06820F48050D1E7002C01402D
:103640007047704710B504460068416994F8392006
:10365000C1F3C011212A0BD151B1416921F0800180
:103660004161206B08B1FEF7FDFD204600F0B3FE7E
:103670002068416994F83A20C1F38011222A0BD1C5
:1036800051B1416921F040014161606B08B1FEF721
:10369000E9FD204600F091FE002010BD70470000BB
:1036A00070B5026804461068D168536910F00F0FB6
:1036B00050D003F0010501F4907635435DD0C20788
:1036C00005D0CA0503D5E26B42F00102E26342076E
:1036D00005D5DA0703D0E26B42F00202E26382070B
:1036E00005D5DA0703D0E26B42F00402E263020779
:1036F00005D5DA0703D0E26B42F00802E263E26B21
:10370000002A33D0800604D5880602D5204600F072
:103710006BFE20684069E16BC0F38010090700D49C
:1037200028B3204600F049FE2068416949061AD5B1
:10373000416921F040014161606BA0B11B494163C7
:10374000606BFEF7A7FD002810D0606B416BBDE8F1
:1037500070400847830610D58B060ED52046BDE87D
:10376000704000F041BE2046FFF798FF70BD204634
:10377000FFF794FF0020E06370BD030606D50B063B
:1037800004D52046BDE8704000F032BF4006F3D5B6
:103790004806F1D5D168204621F04001D1602021B2
:1037A00084F8391000F0AEF970BD0000E342000863
:1037B00070B5040004D094F83900002510B106E07B
:1037C000012070BD84F83850204600F023F82420F2
:1037D00084F839002068C16821F40051C160204696
:1037E00000F04EFE2068016921F4904101612068DB
:1037F000416921F02A0141612068C16841F400510A
:10380000C160E563202084F8390084F83A00002084
:1038100070BD0000F0B5064603683648344F0221FB
:1038200003220515002485B0BB4219D1836943F4F6
:10383000804383618069304E00F480400490080228
:10384000CDE90001039269463046FEF7A9FECDE9B5
:103850000054694630460294FEF7A2FE05B0F0BD62
:10386000264FBB42FAD1C36943F48023C361C069C8
:10387000CDE9005100F48020CDE90320204D6946B8
:103880002846FEF78DFEE814CDE900046946284677
:103890000294FEF785FE1C4D1A488027C5E90004F6
:1038A000C5E902472C616C61AC612846EC61FEF70A
:1038B000E7FD20B14FF4CB7114A001F073F87563EC
:1038C0006E621048184D143801C5102091C5164875
:1038D00045F810496C61AC61EC61FEF7D1FD20B197
:1038E0004FF4D37109A001F05DF835636E62B5E75E
:1038F000003801400010024000080140004800402C
:10390000000C014030000240200500202E2E2F53D5
:1039100072632F73746D3332663178785F68616CCF
:103920005F6D73702E63000064050020F8B50446D7
:1039300090F83A0020283CD1C1B3BAB394F83800CB
:10394000012836D0012084F83800A162A285002524
:10395000E563222084F83A00636B17489862636B32
:103960001648D862636B16481863606B134645634C
:103970000846666B216802463046091DFEF7D7FDF2
:10398000206801684168009184F83850C16841F4AA
:103990008071C1602068416941F001014161206886
:1039A000416941F0400141610020F8BDFFE701207D
:1039B000FBE70220F9E700003D43000879430008D7
:1039C000F3420008704770472DE9F843044690F829
:1039D00039001F4616460D46202850D1A5B19EB18C
:1039E00094F8380001284AD0012084F838004FF0BC
:1039F0000008C4F83C80212084F83900FEF7B4FEAA
:103A0000A6848146E68426E00120BDE8F883E08CA8
:103A1000401EE084A0684B46B0F5805F4FF0000286
:103A20004FF080012046009703D000F012FEE8B965
:103A30000DE000F00EFEC8B928882168C0F3080028
:103A40004860206908B16D1C05E0AD1C03E02168E9
:103A500015F8010B4860E08C0028D8D14B460022B5
:103A600040212046009700F0F4FD08B10320CCE788
:103A7000202084F8390084F838800020C5E702202F
:103A8000C3E7000070B5044690F83900202830D113
:103A900069B362B394F8380001282AD0012084F871
:103AA00038002162A284E2840025E563212084F8A5
:103AB0003900236B10489862236B1048D862236B3F
:103AC0000F481863206B134645632668206B321D30
:103AD000FEF72DFD21686FF04000086084F8385033
:103AE0002068416941F080014161002070BD0120E2
:103AF00070BD022070BD000083430008B143000880
:103B0000F342000870477047FEE700003EB51248D8
:103B1000002410498460C46044610160012505618E
:103B20004FF400214460C161FEF79AFA18B11E21DA
:103B30000AA000F037FF02200094CDE90150694649
:103B40000548FEF79BF9002803D0282103A000F0C8
:103B500029FF3EBD00240140100300202E2E5C42B0
:103B600053505C6273705F6164632E6300000000F9
:103B70000D4808B5416941F00101416140690022E9
:103B800000F00100009011460C20FEF76FFE0C20A3
:103B9000FEF760FE002211460D20FEF767FEBDE82D
:103BA00008400D20FEF756BE001002402DE9F041FE
:103BB000224886B0816941F020018161816901F06C
:103BC00020010491816941F004018161816901F062
:103BD00004010491816941F0080181618069184FF5
:103BE00000F008000490002218213846FEF7B6FDC8
:103BF000DFF850804FF44056002231464046FEF731
:103C0000ADFD18200124CDE9000402256946039585
:103C10003846FEF7C5FC0C486946CDE90040002057
:103C200002904046FEF7BCFCCDE900646946404680
:103C30000395FEF7B5FC06B0BDE8F0810010024028
:103C400000080140000C01400000111010B50022D6
:103C500005210B20FEF70AFE0B20FEF7FBFD0022DC
:103C600005210F20FEF702FE0F20FEF7F3FD0022D4
:103C700005211220FEF7FAFD1220FEF7EBFD0022CF
:103C800005211C20FEF7F2FD1C20FEF7E3FD0022BB
:103C900005211D20FEF7EAFD1D20FEF7DBFD0022B9
:103CA00005212720FEF7E2FDBDE810402720FEF7A2
:103CB000D1BD0000114810B50F4901604FF4827169
:103CC000416000218160C1604FF400720161C0E970
:103CD00005120822C0E90721416281620A21C162FE
:103CE000FFF708F9002805D0BDE81040232104A003
:103CF00000F058BE10BD00000030014084030020D9
:103D00002E2E5C4253505C6273705F6E726632346A
:103D10006C30312E6300000010B523488EB04FF098
:103D200080410024C0E900145921C0E90241046126
:103D30008461FFF797F918B118211CA000F032FE3A
:103D40004FF48050079007A91748FFF7F3F918B10F
:103D50001E2116A000F026FE1348FFF7A0FB18B1A5
:103D6000232112A000F01EFE0B940BA90E480C9408
:103D7000FFF750F918B12A210CA000F013FE6020C3
:103D8000CDE9000402940022694607480494FFF735
:103D90001EFB18B1332105A000F004FE0248FFF716
:103DA000F7FA0EB010BD0000DC0300202E2E5C429E
:103DB00053505C6273705F74696D2E630000000085
:103DC00010B5184886B01649016048210024C0E9A2
:103DD00001146421C0E903148461FFF743F918B1A9
:103DE000492111A000F0DEFD4FF48050009069469B
:103DF0000C48FFF79FF918B14F210BA000F0D2FD3E
:103E00002020CDE9040404A90648FFF703F900289F
:103E100003D0562104A000F0C5FD06B010BD00007F
:103E2000000400401C0400202E2E5C4253505C62B3
:103E300073705F74696D2E63000000000D4810B54B
:103E40000B4901604FF4E1314160002181600C2297
:103E5000C160C0E904128161C161FFF7A9FC0028BB
:103E600005D0BDE810401F2103A000F09BBD10BD90
:103E700000380140A00400202E2E5C4253505C62AA
:103E800073705F75736172742E6300000D4810B516
:103E90000B4901604FF461414160002181600C22B7
:103EA000C160C0E904128161C161FFF781FC002893
:103EB00005D0BDE81040342103A000F073BD10BD53
:103EC00000480040E00400202E2E5C4253505C620B
:103ED00073705F75736172742E630000FEE7FEF706
:103EE0007BBE0907090E002806DA00F00F0000F17A
:103EF000E02080F8141D704700F1E02080F80014E5
:103F00007047000038B51349CA6942F00102CA611E
:103F1000C969124C01F0010100910F492160102183
:103F200061600021A1608021E16049002161890078
:103F3000C4E905108800E0612046FEF7A1FA20B12F
:103F400040F2B91106A000F02DFD0A4844626062FB
:103F500038BD000000100240580002405C04002000
:103F60002E2E5C4253505C6273705F77733238312F
:103F7000322E6300DC03002010B5FEF7FBFBBDE82A
:103F8000104000F0C1BF30B593B001210804CDE965
:103F900000100025029502240491CDE907404FF45A
:103FA000E01009906846FEF723FE00B1FEE70AA97B
:103FB0000F2081E831004FF48060CDE90D0502212A
:103FC0000AA8FEF7FDFC00B1FEE74FF40040119097
:103FD0000F940FA8FEF77CFC00B1FEE7FEF79AFDF8
:103FE000FEF79EFD4FF47A71B0FBF1F0FEF7FCFF97
:103FF0000420FEF7EDFF00220F21501EFEF736FCD5
:1040000013B030BD0D48016841F001010160416805
:104010000B4A1140416001680A4A11400160016881
:1040200021F480210160416821F4FE0141604FF4D8
:104030001F0181600449C0030860704700100240FE
:104040000000FFF8FFFFF6FE08ED00E00148FFF773
:10405000ECB80000DC0300200148FFF7E6B80000E0
:104060001C040020F0B50268164B174C174D4FF09A
:104070008047984205D0B84203D0A04201D0A84260
:1040800003D122F070064A683243984205D0B84204
:1040900003D0A04201D0A84203D122F44074CA68E0
:1040A000224322F080044A69224302608A68C26285
:1040B0000A688262984201D1096901630121416164
:1040C000F0BD0000002C014000040040000800404A
:1040D00010B50123046A8B409C430462036A8A4042
:1040E0001343036210BD10B5446A012184F83D10EA
:1040F000626A824201D121770EE0A16A814201D138
:10410000022008E0E16A814201D1042003E0216B32
:10411000814201D1082020772046FFF7DCF90020FA
:10412000207710BD10B5406A012180F83D10FFF7DF
:104130007AF810BD10B5846842EA032224F47F4463
:104140000A432243826010BD826822F070020A4353
:1041500042F007018160704730B5026A22F0010227
:104160000262026A4368846924F073050C682C4378
:1041700022F002058A682A430A4DA8420BD122F098
:104180000805CA6823F440732A434D6922F00402EB
:104190001D438B692B43436084614968416302621C
:1041A00030BD0000002C014030B5026A22F0100240
:1041B0000262026A436884690D6824F4E64444EAB2
:1041C00005248D6822F0200242EA05120B4DA84218
:1041D0000ED1CD6822F0800242EA05124D6923F427
:1041E000406343EA85038D6922F0400243EA850378
:1041F0004360846149688163026230BD002C0140E4
:1042000030B5026A22F480720262036A4268C469AD
:1042100023F4007324F073050C682C438D6843EA83
:1042200005230C4DA8420ED1CD6823F4006343EA68
:1042300005234D6922F4405242EA05128D6923F4A8
:10424000806342EA05124260C4614968C163036247
:1042500030BD0000002C014030B5026A22F48052CB
:104260000262046A4268C3690D6823F4E64343EAC4
:1042700005238D6824F4005444EA0534064DA84211
:1042800004D14D6922F4804242EA85124260C36142
:1042900049680164046230BD002C014010B5036A16
:1042A000046A24F001040462846924F0F00444EAFE
:1042B000021423F00A020A438461026210BD10B5A1
:1042C000036A23F0100303628369046A23F47043D2
:1042D00043EA023224F0A00343EA01118261016241
:1042E00010BD10B5406A0021C185C184FFF7D6F921
:1042F00010BD70B5446A2068406994F83910C0F365
:10430000C0100025212904D118B1E584204600F011
:1043100062F82068406994F83A10C0F380102229AE
:1043200004D118B1E585204600F047F8E06B40F075
:104330001000E0632046FFF7B1F970BD10B50146EB
:10434000406A09680968890613D40021C18501689B
:10435000CA6822F48072CA6001684A6922F00102C8
:104360004A6101684A6922F040024A61202180F8CE
:104370003A10FFF727FB10BD10B5406AFFF723FB8B
:1043800010BD10B50146406A0968096889060CD459
:104390000021C18401684A6922F080024A610068F4
:1043A000C16841F04001C16010BDFFF7ABFB10BD1B
:1043B00010B5406AFFF7A7FB10BD0168CA6822F478
:1043C0009072CA6001684A6922F001024A612021A4
:1043D00080F83A1070470168CA6822F0C002CA60CB
:1043E000202180F83910704710B590F83A10222932
:1043F00001D0022010BD8168B1F5805F11D0016944
:10440000002901681FD0496801F07F03816A4A1CB6
:1044100082620B70C18D491E0904090CC18518D038
:104420002BE00269816A002A0268526805D0D2B284
:104430000A80816A491C8162ECE7C2F308020A80A3
:10444000816A891CF7E74A68816A4B1C83620A709B
:10445000E0E70168CA6822F02002CA600168CA6801
:1044600022F48072CA6001684A6922F001024A613E
:10447000202180F83A10FFF7A5FA002010BD0000B7
:104480002DE9F041044600680169E26821F44051D9
:10449000114301612169A0680843616908432168EB
:1044A000CA6841F20C639A430243CA6020684169BA
:1044B000A26921F44071114341614C49206864258F
:1044C000322688423CD1FEF741FB00EBC00101EBF4
:1044D000001061688900B0FBF1F7FEF737FB00EBD5
:1044E000C00101EB00106168B0468900B0FBF1F03B
:1044F000B0FBF5F06FF01801484307EB800106EBC5
:104500000110B0FBF5F000F0F006FEF71FFB00EB2A
:10451000C00101EB001061688900B0FBF1F0B0FB55
:10452000F5F006EB0016FEF711FB00EBC00101EB06
:10453000001061688900B0FBF1F7FEF707FB3BE074
:10454000FEF7F4FA00EBC00101EB0010616889008E
:10455000B0FBF1F7FEF7EAFA00EBC00101EB001047
:104560006168B0468900B0FBF1F0B0FBF5F06FF088
:104570001801484307EB800106EB0110B0FBF5F092
:1045800000F0F006FEF7D2FA00EBC00101EB0010DC
:1045900061688900B0FBF1F0B0FBF5F006EB0016A6
:1045A000FEF7C4FA00EBC00101EB0010616889005E
:1045B000B0FBF1F7FEF7BAFA00EBC00101EB001017
:1045C00061688900B0FBF1F0B0FBF5F06FF0180105
:1045D000484307EB800108EB0110B0FBF5F02168C0
:1045E00000F00F0030448860BDE8F08100380140E1
:1045F00090F83910212901D0022070478168B1F567
:10460000805F016A0BD04A1C02620268097851601F
:10461000C18C491E0904090CC1840ED017E0098819
:104620000268C1F30801516001690029016A02D0E2
:10463000491C0162ECE7891CFBE70168CA6822F0AB
:104640008002CA600068C16841F04001C16000207A
:1046500070472DE9F041984617460E460446069DE0
:104660001DE0681C1BD02DB1FEF77EF8A0EB080002
:10467000A84214D92068C16821F4D071C1602068B3
:10468000416921F001014161202084F8390084F85A
:104690003A00002084F838000320BDE8F08120684B
:1046A000006836EA000004D00020B842D9D00020CB
:1046B000F3E70120F9E7000010B50449044800F0D1
:1046C0000AF8BDE810400248FEF7EABFD209002010
:1046D000E0040020FEE738B5054600680C46016896
:1046E000C943C90615D40168406800902846FEF702
:1046F000A9FF686B006840684FF47A72C0F57A7061
:10470000608001202070A11D2846BDE83840FFF7D9
:104710000DB938BD2DE9FC47DFF8BCA104461646AB
:104720009AF80000012876D1002003E00A5C2254A8
:10473000401C80B2B042F9D320784FF00008FF2827
:104740003CD16078FE28FBD1A51915F8030CFF2891
:10475000F6D115F8040CFE28F2D1A0780128EFD18B
:10476000B11E2046FBF730FE074601465BA000F075
:104770001BF915F8010C15F8021D00EB01215CA0D6
:1047800000F012F96878297800EB0120B84215D1C1
:10479000E0785C4D4FF0010908280FD2DFE800F007
:1047A0000448565C656B9187607A574F012806D0A4
:1047B000022814D003281ED004282DD081E03246D0
:1047C00021465248FFF75EF9386800F061FF85F82E
:1047D000049000F0EFFD4EA000F0E6F871E03246E4
:1047E00021464A48FFF74EF9386800F0C3FF02201F
:1047F000287149A00AE0324621464448FFF742F9B1
:10480000386800F0B7FF0320287145A000F0CCF80D
:1048100000F0D0FD55E05CE0324621463B48FFF712
:1048200031F9386800F0A6FF042028713EA0EDE7BA
:104830002879022845D1324621463448FFF722F92B
:1048400085F80180E520FCF7A1FF3AE028790228ED
:1048500037D185F8018011E02879022831D1122260
:1048600021462A48FFF70EF92BE02879022828D1A3
:1048700085F8019019E02879032822D1607A8DF813
:104880000000A07A8DF80100E07A8DF80200207B0C
:104890008DF80400607B8DF80500A07B8DF8060084
:1048A000E07901AA6946FDF74DF83246D8E7287944
:1048B000042806D10D3EB2B204F109011C48FCF7F0
:1048C000C2FF54464FF47A71A01DFBF7A0FC84F898
:1048D0000080BDE8FC870000D2090020637265619A
:1048E0006D435243313A253034780D0A0000000000
:1048F000637265616D435243323A253034780D0A54
:1049000000000000A402002004000020E0040020B9
:104910006D6F7368693100006D6F736869320000F4
:104920006D6F7368693300006D6F736869340000E0
:1049300072060020194C0120207100F03BFD207907
:10494000012826D11649E520FCF7BAFF1449E520D5
:10495000891DFCF7B5FF1249E5200C31FCF7B0FFCB
:104960000F49E5201231FCF7ABFF0D49E5200C396A
:1049700000F08EFF0A49E520093900F089FF084957
:10498000E520891F00F084FF0549E520C91E00F0DD
:104990007FFF012000F0ACFAD1E70000A402002064
:1049A00018000020FEE700000FB4054B10B503A966
:1049B000044A029800F018F810BC5DF814FB0000DF
:1049C0004D4E00080C03002002E008C8121F08C169
:1049D000002AFAD170477047002001E001C1121F80
:1049E000002AFBD1704700002DE9FF4F8DB00F4624
:1049F0000546002606E025280BD0DDE90F1290477A
:104A00006D1C761C28780028F5D111B03046BDE821
:104A1000F08F0024A246A1460122EC4900E00443A5
:104A200015F8013F203B02FA03F00842F7D128783D
:104A30002A2810D06FF02F022878A0F13001092920
:104A400014D80AEB8A0102EB410144F0020400EBA6
:104A5000010A6D1CF0E701CF5FEA000A03D544F4B8
:104A60000054CAF1000A44F002046D1C28782E2874
:104A700017D115F8010F44F004042A280ED06FF066
:104A80002F022878A0F1300109290AD809EB890101
:104A900002EB410100EB01096D1CF2E757F8049BA2
:104AA0006D1C28786C280FD006DC4C2817D068289D
:104AB0000DD06A2814D104E0742810D07A280FD1C0
:104AC0000DE044F400140AE044F4801401E044F4DE
:104AD00040146978814202D104F580146D1C6D1C6C
:104AE0002A786E2A1FD00CDC632A31D004DC002A1D
:104AF0008BD0582A11D1A3E0642A68D0692A0CD13E
:104B000065E0732A2ED004DC6F2A73D0702A04D19A
:104B10009BE0752A6FD0782A6ED01046DDE90F121F
:104B20009047761C50E1C4F30250022806D00328B7
:104B300009D0042801CF09D0066045E101CFF11763
:104B4000C0E9006140E101CF06803DE106703BE134
:104B500017F8040B8DF8000000208DF80100EB46DB
:104B6000012003E057F804BB4FF0FF3061074FF01E
:104B7000000102D40DE008F10101884649450FDA31
:104B80008045F8DB1BF808100029F4D108E008F193
:104B9000010188468142FADB1BF808100029F6D192
:104BA000DDE90F23AAEB08008146214600F036F923
:104BB000304400EB080604E0DDE90F121BF8010B9E
:104BC0009047B8F10108F7D221464846F7E00A219C
:104BD000C4F302534FF0000B0891022B04D001CF15
:104BE000C117032B09D00AE0FF1D27F00707F7E8DC
:104BF000020108E032E01FE020E000B2C117042B00
:104C000001D140B2C117031E71F1000307DA4FF062
:104C1000000CD0EB0C006CEB01012D2302E023050E
:104C200004D52B238DF82430012303E0E30701D0C2
:104C30002023F7E7984658E00A2110E010210EE003
:104C400010204FF0000B08900CE010214FF0000BEB
:104C500044F004044FF00809089103E008214FF0E4
:104C6000000B0891C4F30253022B04D001CF0021A2
:104C7000032B06D006E0FF1D27F00707F7E8020127
:104C800003E080B2042B00D1C0B24FF0000823072C
:104C90002BD5702A07D0DDF820C08CF0100C5CEA10
:104CA0000B0C05D00EE040238DF82430012308E0E2
:104CB00050EA010306D030238DF824308DF82520EA
:104CC00002239846DDF820C08CF0080C5CEA0B0C3F
:104CD0000BD150EA010301D1630706D530238DF8CB
:104CE00024304FF00108A9F10109582A04D038A254
:104CF0000B9208AA0A920BE03AA2F9E75B46089ADF
:104D0000FBF790FA0B9B9B5C0A9A521E0A92137057
:104D100050EA0102F2D10A98ADEB000000F1200B3D
:104D2000600702D524F4803401E04FF00109D94531
:104D300002DDA9EB0B0000E0002000EB0B01414479
:104D40000890AAEB010AE00306D4DDE90F2321460F
:104D5000504600F063F806444FF0000908E009A946
:104D600011F80900DDE90F12904709F10109761CDD
:104D7000C145F4DBE0030CD5DDE90F2321465046A5
:104D800000F04CF8064404E0DDE90F1230209047B3
:104D9000761C0899481E08900029F5DC08E00A985E
:104DA0000A990078491C0A91DDE90F129047761C98
:104DB000BBF10001ABF1010BF1DC21465046DDE90E
:104DC0000F2300F019F806446D1C1BE609280100AA
:104DD0003031323334353637383961626364656671
:104DE0000000000030313233343536373839414233
:104DF00043444546000000002DE9F04104460025EB
:104E00001E461746880404D405E039462020B047E2
:104E10006D1C641EF9D52846BDE8F0812DE9F041EE
:104E2000044600251E469046C80301D5302700E001
:104E30002027880404D505E041463846B0476D1C5C
:104E4000641EF9D52846BDE8F081000013B54FF681
:104E5000FF73012269460248FEF7B6FD00981CBDAB
:104E6000A004002090B0FDF78DFCFFF78CF8FEF752
:104E70009DFEFEF77DFEFEF7A3FFFEF7DFFFFEF7C8
:104E800045FEFEF749FFFEF715FFFEF7FFFFFEF7B1
:104E9000DDFE142211496846FBF7A0F9002168469F
:104EA00000F03CF80E4C0D4914222060143105A886
:104EB000FBF794F9002105A800F030F8074960607D
:104EC000142228310AA8FBF789F900210AA800F06A
:104ED00025F8A06000F013F8FEE70000805B0008F2
:104EE0000000002001460020842900D0C81C704723
:104EF00010B500B9012000F0A5FB002010BD10B5D1
:104F000000F004FC002010BD10B500F065FD012884
:104F100003D0BDE8104000F01DBD10BD3EB50446F5
:104F20000D46B0F90800FFF7DDFF02A9CDE9000149
:104F3000208A2B4682B2D4E9001000F021FD01281E
:104F400001D000203EBD02983EBD00002DE9F04199
:104F5000184C0F460546E6682068001D00F0BCFAB4
:104F600038B9206890F82C100120884021698143CD
:104F70002161681C07D137B12168BDE8F0410E48B6
:104F8000091D00F0E1BA20683544B542456021684A
:104F900005D2A06BBDE8F041091D00F0BDBA606B01
:104FA000091D00F0B9FAA06A854200D2A562BDE8E9
:104FB000F0810000AC020020E81600202DE9F0414D
:104FC000054600F0CDFA2E4CA068401CA060206879
:104FD0002C4F10B1606940B32DE02560A068012816
:104FE00029D1002606EB860007EB800000F086FA48
:104FF000761C072EF6D323488C3000F07FFA214828
:10500000A03000F07BFA1F48B43000F077FA1D485A
:10501000C83000F073FA1B48DC3000F06FFA194812
:105020008C3060631430A06305E02068E96AC06AD0
:10503000884200D82560606A401C6062E96A0120ED
:10504000226988401043206101EB810007EB80005A
:10505000291D00F079FA00F0A3FA606900280CD04D
:105060002068E96AC06A884207D207494FF0805039
:105070000860BFF34F8FBFF36F8FBDE8F081000072
:10508000AC0200200C16002004ED00E070B5114EBB
:10509000114C17E000F0C6FB3068B8B100F00EFD0F
:1050A00000F05EFAF068C568281D00F015FAA068E7
:1050B000401EA0606068401E606000F071FA2846E3
:1050C00000F00CF860680028E4D170BD00F0F6FC38
:1050D000F8E70000D4160020AC02002010B504460A
:1050E000006B00F071FA2046BDE8104000F06CBA89
:1050F0000F4842F6E061420705D0C01D0C4A20F07F
:105100000700821A891A0B4A00230144C2E90003EE
:105110000839103A21F0070111604B600B600B1A3F
:10512000C0E9001393604FF000405360D0607047B7
:10513000FC16002004030020074C4FF08056074D5A
:10514000FFF7A4FF20680128FAD92E60BFF34F8F24
:10515000BFF36F8FF4E700000C16002004ED00E0B1
:105160002DE9F0479A46DDE9098481466FF0030393
:10517000206B03EB82021044089D20F007067007A5
:1051800007D0502080F31188BFF34F8FBFF36F8F8C
:10519000FEE723180A5C83F834200A5C12B1401C35
:1051A0001028F6D3002784F84370072D00D3062576
:1051B000E562C4E91157201D00F0ABF904F11800B5
:1051C00000F0A7F92461C5F107006462A061E764FB
:1051D00084F8507052464946304600F0D9F82060B5
:1051E000B8F1000F01D0C8F80040BDE8F08700001A
:1051F00030B5114900E011460A688242FBD34B6882
:105200005C18844203D140681844486008464368EB
:105210001C18944209D1084C103C2468A24209D0C1
:1052200052681A4442600A6812680260814200D0E3
:10523000086030BD0460F9E7040300200648416BB4
:10524000096829B1416BC968C968496881627047BA
:105250004FF0FF31FAE70000AC0200200848406838
:10526000401C4FF0500080F3118804D0BFF34F8FE3
:10527000BFF36F8FFEE7BFF34F8FBFF36F8FFEE774
:10528000E8020020002150B10A4B42699A420FD136
:10529000806AA3F1280290420AD040B108E0502071
:1052A00080F31188BFF34F8FBFF36F8FFEE70121AB
:1052B00008467047E81600202DE9F0410546002712
:1052C00000F0B0FA314E306808B9FFF711FFF0680E
:1052D00005424BD1C5B3083568070ED005F007006D
:1052E000C0F108000544680707D0502080F31188FA
:1052F000BFF34F8FBFF36F8FFEE72DB3706885420A
:1053000034D82248103001460C6801E020460C4693
:105310006168A94202D221680029F7D131688C4224
:1053200024D007682168016060680837411B102994
:105330000FD96019420708D0502080F31188BFF3BD
:105340004F8FBFF36F8FFEE710E041606560FFF79E
:105350004FFF61687068401A7060B268904200D276
:10536000B060F06801430020C4E9000100F0A6FB32
:10537000780707D0502080F31188BFF34F8FBFF319
:105380006F8FFEE73846BDE8F0810000F402002090
:1053900010B5031F4FF080741C601B1F21F001012A
:1053A0001960191F024B0B60143940380A6010BD98
:1053B0005D52000810B54FF440710848FAF727FF16
:1053C000FCF716FA0120FFF793FDE520FCF73EFA03
:1053D000BDE810400720FFF78BBD000072060020DB
:1053E000F0B51D4900EB400250188D5C437884787D
:1053F00000203D2601F540711D274FF6FF7201E0A8
:1054000008280AD25FEA036C02D521F8106001E097
:1054100021F8107002EA430319E0A0F1080CBCF176
:10542000080F0AD25FEA056C02D521F8106001E08E
:1054300021F8107002EA450509E05FEA046C02D524
:1054400021F8106001E021F8107002EA4404401CC9
:1054500080B21828D4D3F0BD72060020F0B51D49E3
:1054600000EB400250188D5C4378847818203D266C
:1054700001F540711D274FF6FF7201E020280AD286
:105480005FEA036C02D521F8106001E021F810708A
:1054900002EA430319E0A0F1200CBCF1080F0AD284
:1054A0005FEA056C02D521F8106001E021F8107068
:1054B00002EA450509E05FEA046C02D521F81060B4
:1054C00001E021F8107002EA4404401C80B2302848
:1054D000D4D3F0BD72060020D0E9013201699A6090
:1054E000D0E901235A604A68824201D182684A6049
:1054F000002202610868401E0860704700F1080140
:105500004FF0FF32C0E90112C1600161002101606A
:10551000704700210161704730B50B685A1C02D0FA
:1055200000F1080202E0026904E02246546825689E
:105530009D42FAD953684B6099608A605160086156
:105540000168491C016030BD42684A6093688B6005
:1055500093685960916008610168491C0160704757
:10556000502080F31188BFF34F8FBFF36F8F0A492C
:105570004868401C486001280CD10848006810F0B9
:10558000FF0F07D0502080F31188BFF34F8FBFF378
:105590006F8FFEE770470000E802002004ED00E096
:1055A0000849486828B1401E486001D180F311883D
:1055B0007047502080F31188BFF34F8FBFF36F8F78
:1055C000FEE70000E802002070B5002827D0144D47
:1055D000A0F108046168E868014207D1502080F317
:1055E0001188BFF34F8FBFF36F8FFEE722683AB188
:1055F000502080F31188BFF34F8FBFF36F8FFEE70A
:105600008143616000F00EF9606869680844686071
:105610002046FFF7EDFDBDE8704000F04FBA70BDC9
:10562000F402002006484FF47A710068B0FBF1F1F3
:105630004FF0E020491E41610721016170470000E1
:105640003000002010B5020014D00F48006B38B1B4
:10565000502080F31188BFF34F8FBFF36F8FFEE7A9
:1056600000F0E0F800211046FFF770FC00F026FA89
:10567000002807D105494FF080500860BFF34F8FD5
:10568000BFF36F8F10BD0000AC02002004ED00E0FE
:1056900070B504002BD01A4D286884422FD0FFF734
:1056A0005FFF2046FFF7EEFDE8B1201DFFF714FF76
:1056B000E06A01212A69814011432961114900EB07
:1056C000800001EB8000211DFFF73EFFE06A2968A2
:1056D000C96A884207D30C494FF080500860BFF375
:1056E0004F8FBFF36F8FBDE87040FFF759BF502059
:1056F00080F31188BFF34F8FBFF36F8FFEE770BD4C
:10570000AC0200200C16002004ED00E01CB515488A
:105710000024CDE900402346802213A1144800F064
:105720002FF9012809D0401C1AD1502080F311888C
:10573000BFF34F8FBFF36F8FFEE7502080F31188C8
:10574000BFF34F8FBFF36F8F06484FF0FF312C38F8
:10575000816201214161C460BDE81C4000F0C0B815
:105760001CBD0000D802002049444C450000000048
:105770003951000870B50446FFF7F2FE264D04B912
:105780002C68201DFFF7A8FE58B9E06A234A00EBF9
:10579000800152F8211021B90121814028698843F4
:1057A0002861A06A18B104F11800FFF795FE1B48A4
:1057B000211DDC30FFF7C8FEFFF7F2FE686928B153
:1057C000FFF7CEFEFFF73AFDFFF7EAFE28688442B6
:1057D00013D1686990B1286B38B1502080F31188DB
:1057E000BFF34F8FBFF36F8FFEE70D494FF080502F
:1057F0000860BFF34F8FBFF36F8F70BD0748A96874
:10580000DC300068884202D10020286070BDBDE80D
:10581000704000F00FB80000AC0200200C16002011
:1058200004ED00E00248016B491C01637047000071
:10583000AC0200201448016B11B10121C161704715
:105840000021C1610169B1FA81F1C1F11F0101EBD0
:1058500081020E4951F822306BB101EB820101F156
:1058600008034A6852684A609A4201D152684A6005
:10587000D16801607047502080F31188BFF34F8FCB
:10588000BFF36F8FFEE70000AC0200200C16002073
:1058900070B50446002211480AE002EB42030D787D
:1058A000C55403444D785D708D78521C9D7092B242
:1058B000A242F2D3FBF79CFF0120FFF719FB204621
:1058C000FBF7C4FFC4EB041040004FF47A71B0FB47
:1058D000F1F0BDE87040401CFFF70ABB72060020E3
:1058E0001CB5194908780190FF20087008788DF8D8
:1058F00000009DF80000154A00F0500010700720CD
:10590000906005E09DF800305B008DF80030401E8F
:105910009DF800301B06F5D4000200F4E0609060B2
:10592000019808700A48016841F47001016001683B
:1059300041F070410160FFF775FE00205060FAF7FA
:10594000F1FB00201CBD000000E400E0E8020020A4
:1059500020ED00E010B5502080F31188BFF34F8F89
:10596000BFF36F8F00F046F818B104494FF0805034
:105970000860002080F3118810BD000004ED00E0F5
:105980002DE9FF5F8346DDE90E87994616468A4674
:105990009000FFF791FC05001AD05420FFF78CFC13
:1059A000040012D025630021CDE90241CDE9008732
:1059B0004B46324651465846FFF7D2FB2046FFF78A
:1059C000FDFA012004B0BDE8F09F2846FFF7FCFD7A
:1059D0004FF0FF30F6E700000548416919B1006B50
:1059E00018B1002070470120704702207047000066
:1059F000AC0200202DE9F0412E4C0027206B40B175
:105A0000A069401CA061E06900B101273846BDE8EB
:105A1000F081E668761CE66013D1606B006838B1EF
:105A2000502080F31188BFF34F8FBFF36F8FFEE7D5
:105A3000606BA16B6163A063206A401C2062FFF76A
:105A4000FDFBA06ADFF87080864209D3606B0068B6
:105A500080B1606BC068C568686886420DD2A0627C
:105A60002068C06A00EB800158F821000128CAD9DB
:105A70000127C8E74FF0FF30F1E7281DFFF72CFDA5
:105A8000A86A18B105F11800FFF726FDE86A0121A0
:105A9000226981401143216100EB800108EB810004
:105AA000291DFFF751FDE86A2168C96A8842CDD3F4
:105AB0000127CBE7AC0200200C1600202DE9F047AF
:105AC0002C4D00242746286B38B1FFF749FD286B81
:105AD000401E2863286B40B146E0502080F31188B7
