:020000040800F2
:1000000060490020990100086B420008953E0008F5
:1000100069420008050A0008614A00080000000063
:1000200000000000000000000000000001010008C6
:100030009B1C000800000000450100080543000863
:10004000B3010008B3010008B3010008B3010008C0
:10005000B3010008B3010008B3010008B3010008B0
:10006000B3010008B3010008B3010008350A000815
:100070008D0A0008990A0008B3010008A50A0008C3
:10008000B3010008B30100088D090008B30100089E
:10009000B3010008B3010008B3010008B301000870
:1000A000B3010008B3010008B3010008B301000860
:1000B000D9430008E5430008B3010008B301000874
:1000C000B3010008B3010008B3010008B301000840
:1000D000B3010008B3010008B3010008454A000855
:1000E000B3010008B3010008B3010008DFF80CD029
:1000F00000F0ECFB00480047A55A000860490020CA
:10010000224B19680868B0E8F00F80F30988BFF344
:100110006F8F4FF0000080F311884EF00D0E704786
:100120000000000006480068006880F3088862B696
:1001300061B6BFF34F8FBFF36F8F00DF00BF00BF0B
:1001400008ED00E0EFF30980BFF36F8F0F4B1A68E3
:1001500020E9F00F106008B54FF0500080F31188CF
:10016000BFF34F8FBFF36F8F06F028FA4FF00000F8
:1001700080F31188BDE8084019680868B0E8F00FFE
:1001800080F30988BFF36F8F704700BF880200209B
:10019000EFF3058070470000064880470648004797
:1001A000FEE7FEE7FEE7FEE7FEE7FEE7FEE7FEE727
:1001B000FEE7FEE791430008ED000008202A04DB7B
:1001C000203A21FA02F00021704721FA02F3D040D0
:1001D000C2F1200291400843194670470649074A78
:1001E0000868504343F239021044086040087047E1
:1001F0000149086070470000E80200206D4EC641CA
:1002000040EA01039B0703D009E008C9121F08C098
:10021000042AFAD203E011F8013B00F8013B521E18
:10022000F9D27047D2B201E000F8012B491EFBD28F
:1002300070470022F6E710B513460A4604461946F1
:10024000FFF7F0FF204610BD80EA010210B502F072
:100250000043400022D04A001FD0010E01EB126182
:10026000C0F35600C2F3560240F4000042F400020C
:10027000A0FB022000047F39140400D0401C50EA87
:10028000124001D44000491EC2B20C0604EBD0104B
:10029000401C4008802A02D003E0002010BD20F05E
:1002A0000100002900DA0020184310BD2DE9FE4F9F
:1002B000804681EA0300C00F0C46009021F0004107
:1002C00023F00045B8EB0200A94105D24046214683
:1002D00090461C460B46024623F00040104347D090
:1002E000270DC7F30A00C3F30A510290401A019088
:1002F00040286BDAC3F3130040F4801B0098924649
:1003000020B10023D2EB030A63EB0B0B0198594693
:10031000C0F14002504600F024FA06460D46504611
:100320005946019A00F02CFA10EB080061410024B4
:1003300087EA115284EAE7731A4340D0009A62B305
:10034000019A012A4FEA075215DC001B61EB0201FA
:100350004FF0004202EA0752CDE90042001C41F58D
:10036000801132462B4600F063FA03B0BDE8F08FEF
:1003700040462146F9E7001B61EB0201001C41F5F4
:10038000801300185B412018A2F5001747EB03010A
:1003900040EAD570B6196D4111E06D084FEA360696
:1003A00045EAC0754FEA0752001B61EB0201001CD1
:1003B00041F5801149084FEA300000195141324699
:1003C0002B4603B0BDE8F04F00F023BA009801229D
:1003D00040000023D0EB020263EBE073009821465B
:1003E0004FEAE074B8EB000061EB0401E9E783F049
:1003F00000435BE781F0004158E72DE9FE4F81EAB9
:10040000030404F0004421F0004100944FF0000B7D
:1004100023F0004350EA01045ED052EA03045BD0AB
:10042000C3F30A54C1F30A552C44A4F2F3340194E3
:10043000A0FB0254C1F3130141F48011C3F3130371
:1004400043F4801301FB024400FB034E840A970A25
:1004500044EA815447EA8357A4FB076802958D0A52
:1004600005FB07854FEA932C04FB0C542705029DDE
:100470004FEA065847EA1637B5EB08056EEB070C4E
:10048000870E920E47EA811742EA8312A7FB020108
:10049000B6EB0B0164EB00042B0D43EA0C335E1842
:1004A00044EB1C50DA465146E7FB0201C5F3130446
:1004B0004FEA0B3343EA14534FEA0432019C43EAF8
:1004C0000603A4F10C040294009CCDE900B400F0F2
:1004D000AFF903B0BDE8F08F00200146F9E72DE940
:1004E000F04D81EA030404F0004B21F0004514466E
:1004F0004FF0000A23F0004150EA050220D054EAF0
:1005000001021DD0C5F30A570246C5F31303C1F318
:100510001300C1F30A5640F4801543F48013A7EB8F
:100520000608101BD64608F2FD3873EB050002D30F
:1005300008F1010801E092185B41B8F1000F03DAFD
:1005400000200146BDE8F08D00204FF480110646E2
:1005500084460EE0171B73EB050705D3121B63EBF4
:10056000050306434CEA010C49084FEA3000921893
:100570005B4150EA0107EDD152EA030012D082EA52
:10058000040083EA0501084305D0101BAB4106D2E5
:100590000122002306E000224FF0004302E06FF04A
:1005A000010253101AEB06004CEB085110EB0A0045
:1005B00041EB0B01BDE8F04D00F02BB970B521F017
:1005C000004303430CD0C1F30A550024D5EB0405C6
:1005D00064EB0403D617AD1AB34102DB00200146D9
:1005E00070BD201841EB025170BD962300221146C8
:1005F00000F0E1B80EB540F2334102910021CDE99F
:1006000000110A460B4600F013F903B000BDC1F318
:100610000A5210B5C1F3130140F2FF3341F48011C7
:100620009A4201DA002010BD40F233439A42A2F20E
:10063000334203DC5242FFF7C1FD10BD904010BDB4
:1006400000F0004230F000400AD0C10D01F56071A9
:10065000C0F3160042EA0151C20840071143704737
:10066000002001467047000030B5041E71F10004FF
:1006700004DB4FF00044404264EB0101141E73F1AF
:10068000000405DB1C464FF00043524263EB0403B9
:100690008B4208BF824230BD30B5041E71F10004A8
:1006A00004DB4FF00044404264EB0101141E73F17F
:1006B000000405DB1C464FF00043524263EB040389
:1006C000994208BF904230BD01F0004330B421F0A0
:1006D000004150EA010206D00A0DA2F56072C1F392
:1006E0001301002A02DC30BC00207047440F44EAAA
:1006F000C104C100E01830BC00EBC25000F052B899
:100700002DE9F05F0546002092469B468846064646
:10071000814640241BE02846414647462246FFF7D3
:100720004DFD53465A46C01A914110D31146184602
:10073000224600F016F82D1A67EB01084F462246B4
:100740000120002100F00DF817EB00094E41201E9A
:10075000A4F10104DFDC484631462A464346BDE8A1
:10076000F09F202A04DB203A00FA02F100207047B3
:100770009140C2F1200320FA03F3194390407047DF
:10078000202A06DBCB17203A41FA02F043EAE07355
:1007900006E041FA02F3D040C2F120029140084342
:1007A000194670470029A8BF7047401C490008BF80
:1007B00020F00100704710B4B0FA80FC00FA0CF091
:1007C00050EA010404BF10BC704749B1CCF12004C9
:1007D00021FA04F411FA0CF118BF01212143084356
:1007E000A3EB0C01CB1D4FEA00614FEA102042BF82
:1007F000002010BC704700EBC35010440029A4BF78
:1008000010BC7047401C490008BF20F0010010BC1C
:10081000704710B5141E73F1000408DA401C41F152
:10082000000192185B411A4301D120F0010010BD74
:100830002DE9F04D92469B4611B1B1FA81F202E0EA
:10084000B0FA80F220329046FFF78BFF04460F4645
:1008500040EA0A0041EA0B0153465A46084313D0C6
:10086000114653EA010019D0C8F140025046FFF783
:10087000A5FC05460E46504659464246FFF771FF15
:10088000084305D0012004E020463946BDE8F08D3C
:100890000020054346EAE0762C4337430A98630577
:1008A000E40AA0EB08000022FD0A44EA47540A309B
:1008B00002D500200146E9E7010510196941DDE98B
:1008C000084500196941BDE8F04DA2E7064C074D07
:1008D00006E0E06840F0010394E807009847103410
:1008E000AC42F6D3FFF706FC9C6A0008BC6A00081D
:1008F0000EB5C10F80EAE0700844CA07002140F23B
:1009000033438DE80E000A460B46FFF791FF03B014
:1009100000BD70B5C1F30A5201F000450024C1F3D7
:10092000130140F2FF3341F480119A4201DA0020B2
:1009300070BD40F233439A42A2F2334203DC52428A
:10094000FFF73CFC00E090402C43F1D0404270BDEA
:1009500030B58C1810F8012B12F00F0301D110F8EC
:10096000013B120906D110F8012B03E010F8015BDE
:1009700001F8015B5B1EF9D101E001F8013B521E59
:10098000FBD1A142E6D3002030BD0000014801F0B8
:100990006ABA0000F402002070B50446006881685D
:1009A000C943C9071CD1816821F00101816001F0B0
:1009B0005FFE05460FE000BF01F05AFE401B022813
:1009C00009D9A06A40F01000A062E06A40F001007E
:1009D000E062012070BD20688068C043C007EBD092
:1009E000002070BD00F0E8F8054D05F2EE346A888D
:1009F000A91D204604F054F8012005F099F8F6E707
:100A000050090020FEE7000010B54FF6FF72084BBA
:100A100009E000BF10F8014B5440E4B2491E33F81E
:100A2000144084EA12220029F4DCD04380B210BDC5
:100A30008000002070B50F480068800714D50E496B
:100A4000012008700D4801F05DFB0D4A0D4C00209F
:100A5000231832F81010801C0D0A83F8D65780B284
:100A600083F8D717FF28F3D9BDE87040064801F096
:100A7000D3BB00000000024086020020F4020020E8
:100A80008A1100205009002024030020014801F0B1
:100A9000C3BB000048050020014801F0BDBB0000B9
:100AA0000405002070B51F4C00252078012804D1D2
:100AB000257000211C4802F005FDA078012814D102
:100AC0006089401C80B260812189884208D9174919
:100AD000A5706581012008700021134802F0F2FC26
:100AE0006089C10705D005F02DFB6078012803D08F
:100AF00012E005F0E9FAF8E7A07868B9A088401C90
:100B000080B2A080E188491E884205DD6570A5801D
:100B10000021054802F0D6FCBDE87040044801F011
:100B20007BBB000014000020C003002085020020D1
:100B30004004002010B500F011F8BDE8104000F0AE
:100B400003B8704770470000024A0021024801F0D4
:100B50003FBC0000430B000840040020024A012172
:100B6000024801F035BC0000450B0008400400209D
:100B700010B50C46811D4FF47A72204602F05AFEE1
:100B80002068C16841F01001C16010BD30B590F817
:100B900040500124AC40C56B6C60046863604368DE
:100BA000102B036803D099600068C26030BD9A6062
:100BB0000068C16030BD000001490248FFF7D8BF9E
:100BC000C40400205009002038B5154C0021E080F5
:100BD000144802F077FC1448416941F00101416179
:100BE000406900F001000090202003F051FBFFF766
:100BF000A1FF012060700020A0801D2104F10C02E3
:100C000022F81010401C80B23028F9D301B0044AF9
:100C1000BDE8304030230C320021024802F0E0BB36
:100C200014000020C003002000100240F7B5174652
:100C30000D4600244FF47A761AE0E1B23A46BDF848
:100C4000000000F093F900F08BF8012004F070FF31
:100C5000BDF8000000F0AAFDBDF80000C0EB0010D8
:100C60004000B0FBF6F0401C04F062FF641CA4B22C
:100C7000AC42E2D3FEBD0000F7B50D4640F6B831F8
:100C80001248FFF7D6FA00244FF47A761AE0E1B260
:100C90000122BDF8000000F0BDF900F061F801206C
:100CA00001F0F3FBBDF8000000F080FDBDF800008E
:100CB000C0EB00104000B0FBF6F0401C01F0E5FB7B
:100CC000641CA4B2AC42E2D3FEBD0000F0050020DB
:100CD00037B58CB00D4605F0E1F9002433E020462D
:100CE000FFF788FC4FF06632194BFFF786FB194B74
:100CF000BDF83020CDE90623174B0022CDE90423AF
:100D0000164A4FF03333CDE90232CDE900010AAA89
:100D100009A908A802F0F0FE00F022F8012001F075
:100D2000B4FBBDF8300000F041FDBDF830004FF4D9
:100D30007A71C0EB00104000B0FBF1F0401C01F0F4
:100D4000A4FB641CA4B2AC42C9D30FB030BD0000F8
:100D50006666F63FF00500200000F03F3333D33FD6
:100D600008B500210D4802F0ADFB0D48416941F086
:100D700001014161406900F001000090002003F092
:100D800087FA084901203223087001B0064A002181
:100D900002485DF804EB02F023BB0000C003002012
:100DA00000100240140000208C050020F1B5002442
:100DB0004FF47A751AE000BFBDF80010204600F02D
:100DC0007BFCFFF7CDFF012001F05FFBBDF80000C9
:100DD00000F0ECFCBDF80000C0EB00104000B0FBE0
:100DE000F5F0401C01F051FB641CA4B2BDF80000FA
:100DF0008442E1D340F6B83631461648FFF719FA77
:100E000000241CE0BDF80000BDF80010001B80B2FB
:100E100000F052FCFFF7A4FF012001F036FBBDF803
:100E2000000000F0C3FCBDF80000C0EB0010400063
:100E3000B0FBF5F0401C01F028FB641CA4B2BDF827
:100E400000008442DED33146BDE8F8400148FFF798
:100E5000F0B90000F005002031B500244FF47A7598
:100E600017E0204600F0E8FBFFF77AFF012001F0D1
:100E70000CFBBDF8000000F099FCBDF80000C0EBD1
:100E800000104000B0FBF5F0401C01F0FEFA641CBD
:100E9000A4B2BDF800008442E3D300241BE000BFED
:100EA000BDF80000001B80B200F0C6FBFFF758FF42
:100EB000012001F0EAFABDF8000000F077FCBDF86F
:100EC0000000C0EB00104000B0FBF5F0401C01F04A
:100ED000DCFA641CA4B2BDF800008442E0D338BD43
:100EE00073B500244FF47A7518E00A21204600F00B
:100EF00011FCFFF735FF012001F0C7FABDF8000033
:100F000000F054FCBDF80000C0EB00104000B0FB46
:100F1000F5F0401C01F0B9FA641CA4B2BDF8000061
:100F20008442E2D300241BE0BDF800000A21001B2C
:100F300080B200F0EFFBFFF713FF012001F0A5FAEC
:100F4000BDF8000000F032FCBDF80000C0EB00105E
:100F50004000B0FBF5F0401C01F097FA641CA4B20D
:100F6000BDF800008442DFD37CBD000070B50546AB
:100F70001446224E0846FFF738FB3146FFF764F966
:100F8000FFF75EFB1E4A1F4BFFF737FAFFF79CFB8C
:100F9000FFF756FB00221C4BFFF788F905F010F90C
:100FA0000722FFF70BFB0022184BFFF77FF9FFF733
:100FB0002EFBC3B200200146154A1BE0012C04D0D1
:100FC000022C08D0032C0DD012E000EB4006915506
:100FD0001644737004E000EB40069355164471709C
:100FE000B17005E000EB4006915516447170B37086
:100FF000401C80B2A842E1D370BD0000B5B4B43F3C
:101000005DA79196CADB913F00001340000060404D
:10101000F00500202DE9F04104462B4D0846FFF76E
:10102000E4FA2946FFF710F9FFF70AFB274A284B95
:10103000FFF7E3F9FFF748FBFFF702FB0022254B20
:10104000FFF734F905F0BCF80722FFF7B7FA0022E2
:10105000214BFFF72BF9FFF7DAFAC3B20020461E47
:10106000A50802461D492AE0B0EB940F03D200EB1D
:101070004007CA551EE006EB9407874208DAB0EB3A
:10108000450F05D200EB4007CB550F447A7013E0B3
:1010900006EB450787420ADA05EB4507874206D982
:1010A00000EB4007CA550F447A70BB7005E000EBB7
:1010B0004007CB550F447B70BA70401C80B2A042F1
:1010C000D2D3BDE8F0810000B5B4B43F5DA79196DE
:1010D000CADB913F0000134000006040F005002093
:1010E00031B500244FF47A751BE00A21204600F048
:1010F0001DF8FFF735FE012001F0C7F9BDF800002B
:1011000000F054FBBDF80000C0EB00104000B0FB45
:10111000F5F0401C01F0B9F90A2001F0B6F9641CA1
:10112000A4B2BDF800008442DFD338BD70B5FF24FF
:10113000274B00EB4005042801D25C5570BD02D15D
:101140002348447370BD224EA0F1050100EB40021C
:101150003244062901D2947070BDA0F10B06002123
:101160000E2E01D291701CE0A0F119061C2E2BD37B
:101170001C3E082E22D3083E062EF3D3B61F132E94
:101180001CD3133E1C2EEDD31C3E0A2E1CD30A3E4C
:10119000162EE7D3163E212E10D3213E052E03D264
:1011A00094705470595570BDA0F1B806032E0BD33E
:1011B000F61E0E2ED6D30E3E0E2E02D29470517015
:1011C000F0E7D7380E28EED291705170B5E70000E5
:1011D000F005002030B5ED4CFF236218F0B3012874
:1011E0005BD0022862D0032860D004286BD0052889
:1011F00073D0062872D0072871D0082870D009282B
:101200006FD00A286ED00B286DD00C286CD00D281A
:101210006BD00E286AD00F2869D0102868D011280A
:1012200067D0122879D0132827D182F85B3282F850
:101230005E3282F8613282F8643282F8673282F874
:101240006A3282F86D3282F8703282F8733282F834
:10125000763282F8793282F87C3200E00EE082F851
:101260007F3282F8823282F8913282F88E3282F8AE
:101270008B3282F8883282F8853230BD00EB40052F
:1012800025440D44401CC0B285F84B301C28F5D3D2
:1012900082F8C63082F8C33030BD82F8483082F818
:1012A000453002F8423F82F87E3030BD82F8BD30D2
:1012B00082F8BA3082F8B73082F83F3082F83C309A
:1012C00082F8393030BD6354D37093715372137305
:1012D00082F8363082F89F3030BD0BE01EE036E0F9
:1012E0003CE054E070E092E0A6E0C2E0D6E0EAE044
:1012F00000E120E182F8C93082F8A23082F8A530FE
:1013000082F8A83082F8AB3082F8333082F830307F
:1013100082F82D3082F82A30DEE723E182F8AE3001
:1013200082F8B13082F8B43082F8CC3082F8CF3015
:1013300082F8D23082F8D53002F80F3FD370937123
:1013400053721373D373137653759374C4E702F80F
:10135000D83FD370937153721373BDE782F8E730AF
:1013600082F8EA3082F8ED3082F8F03082F8F3301B
:1013700082F8B63182F8B93182F8BC3182F8BF31D7
:1013800082F8C23182F8C53182F8C831A4E782F808
:10139000F63082F8F93082F8FC3082F8FF3082F8BB
:1013A000B33182F8B03182F8AD3182F8AA3182F8D7
:1013B000CB3182F8CE3182F8D13182F8D43182F843
:1013C000D73182F8DA3187E782F8023182F80531C5
:1013D00082F8083182F80B3182F8A73182F8A43103
:1013E00082F8A13182F89E3182F8DD3182F8E03155
:1013F00082F8E33182F8E63182F8E93182F8253269
:1014000082F8283282F82B3282F82E3264E782F892
:101410000E3182F8113182F8143182F89B3182F852
:10142000983182F8EC3182F8EF3182F8F23182F8AB
:10143000223282F81F324FE782F8173182F81A31D0
:1014400082F81D3182F8953182F8923182F88F311D
:1014500082F88C3182F8893182F8F53182F8F831DE
:1014600082F8FB3182F8FE3182F81C3282F81932A0
:1014700032E782F8203182F8233182F8263182F86F
:10148000293182F8863182F8833182F8803182F8FE
:10149000013282F8043282F807321DE782F82C31DB
:1014A00082F82F3182F8323182F8353182F87D317D
:1014B00082F87A3182F8773182F80A3282F80D3276
:1014C00082F8103208E782F8383182F83B3182F82E
:1014D0003E3182F8413182F8743182F8133282F859
:1014E000163282F8313282F8343282F8373282F89A
:1014F0003A32F1E682F8443182F8473182F84A31D3
:1015000082F84D3182F8713182F86E3182F86B3198
:1015100082F8683182F8653182F8623182F83D32B2
:1015200082F8403282F8433282F8463282F8AC3296
:1015300082F8AF32D0E682F8503182F8533182F827
:101540005F3182F85C3182F8493282F84C3282F89D
:101550004F3282F8A93282F8A63282F8A33282F89A
:10156000A032B9E682F8593182F8563182F8523207
:1015700082F8553282F8583282F89D3282F89A32D7
:1015800082F8973282F89432A6E60000F005002037
:101590002DE9F3410E4640F6B83739462448FEF7A8
:1015A00048FE00244FF47A7531462046FFF712FEBC
:1015B000FFF7D6FB012004F0BBFABDF8000000F0F5
:1015C000F5F8BDF80000C0EB00104000B0FBF5F0EE
:1015D000401C04F0ADFA1E2004F0AAFA641CA4B268
:1015E000142CE1D339461248FEF723FE132431466A
:1015F0002046FFF7EFFDFFF7B3FB012004F098FA58
:10160000BDF8000000F0D2F8BDF80000C0EB0010FB
:101610004000B0FBF5F0401C04F08AFA1E2004F0F4
:1016200087FA641E2404240CE1D1BDE8FC8100008B
:10163000F0050020FEF7E4BD10B504464FF44071FC
:101640001C48FEF7F6FD1B4804EB440200218154C0
:101650001044FF2241708270C1700271417181712A
:10166000C171027241728272C172017341738273DD
:10167000C17302744174817780F8222080F82610AB
:1016800080F8481080F84F1080F8532080F85A10E6
:1016900080F85E2080F8621080F8811080F87C105D
:1016A00080F87D2080F8961080F89A2080F89E10AF
:1016B00010BD0000F0050020F0B5154C00EB400512
:1016C0000022FF262B19B0EB910F02D266555A70FB
:1016D0001CE04FF0FF3707EB910C844506DAB0EBC6
:1016E000510F03D262555A709E70F0BD07EB510C3A
:1016F0008F0807EB4707844501DA8742E6D87F1E4B
:101700008742F2DA8842F0D262555E709A70F0BD7C
:10171000F005002010B504464FF440712248FEF752
:1017200088FD214904EB4403FF20C85400221944DA
:10173000142C4A708A70C8700A714A718871CA7113
:101740000A7248728A72CA7208734A738A73C873BB
:101750000A744A7417D901F83C2C01F83B0C01F8C3
:101760003A2C01F8392C01F8380C01F8372C01F823
:10177000362C01F8350C01F8342C01F8332C01F823
:10178000320C01F8312C1E2C0CD901F85A2D4A705C
:101790008870CA700A7148718A71CA7108724A7277
:1017A0008A72C87210BD0000F005002038B5114CD7
:1017B00000212081104801F085FE1048416941F068
:1017C00001014161406900F001000090202002F019
:1017D0005FFDFFF7AFF9022000F076FA0120A0705C
:1017E000608101B03023BDE83040054A0021024845
:1017F00001F0F6BD14000020C003002000100240DC
:10180000F008002010B50446FFF7AAFA012004F002
:101810008FF92046FFF7CAFFC4EB041040004FF4D5
:101820007A71B0FBF1F0BDE81040401C04F080B9C3
:101830002DE9F04FF94B01280ED0022826D04FF0A9
:10184000060B4FF01C0E4FF00E0A032836D004286A
:1018500054D0052875D04EE00020451C002400EB34
:101860004000C618105D0F5DC01B68434FEAE07C66
:1018700000EB9C7007EBA0003055641CE4B2032C15
:10188000F0D3E8B20428E8D3BDE8F08F04240020A8
:1018900004EB4405EE18155C0F5CED1B4FEAE57C8C
:1018A00005EB9C7507EBA5053554401CC0B2032819
:1018B000F1D3641CE4B2052CE9D3E5E705245F46C7
:1018C000002504EB440C261F0CEB030912F80580DD
:1018D00011F805C0A8EB0C0808FB06F898FBF7F810
:1018E000C44409F805C06D1CEDB2032DEED3641C91
:1018F000E4B20B2CE4D3062844D01EE00B24574658
:1019000004EB440C0025A4F10A060CEB030900BF0C
:1019100012F8058011F805C0A8EB0C0808FB06F8C2
:1019200098FBF7F8C44409F805C06D1CEDB2032D0F
:10193000EED3641CE4B2192CE2D3072843D01EE096
:10194000FFE71924774604EB440C0025A4F11806A0
:101950000CEB030912F8058011F805C0A8EB0C0880
:1019600008FB06F898FBF7F8C44409F805C06D1C9D
:10197000EDB2032DEED3641CE4B2352CE3D308287A
:1019800042D01DE0352404EB44060025A4F13407C1
:1019900006EB0309565D11F805C0A6EB0C067E4365
:1019A0004FEAE67806EB58760CEBE60609F8056098
:1019B0006D1CEDB2032DEDD3641CE4B23D2CE2D3DB
:1019C000092842D01DE03D245F4604EB440C00256D
:1019D000A4F13C060CEB030912F8058011F805C0D0
:1019E000A8EB0C0808FB06F898FBF7F8C44409F8C4
:1019F00005C06D1CEDB2032DEED3641CE4B2432C84
:101A0000E3D30A2842D01DE043244FF0130C04EB2B
:101A100044070025A4F1420607EB030912F80580EC
:101A20004F5DA8EB070808FB06F898FBFCF8474455
:101A300009F805706D1CEDB2032DEFD3641CE4B200
:101A4000562CE4D30B2842D01DE05624774604EBF5
:101A5000440C0025A4F155060CEB030912F805808F
:101A600011F805C0A8EB0C0808FB06F898FBF7F87E
:101A7000C44409F805C06D1CEDB2032DEED3641CFF
:101A8000E4B2722CE3D30C2843D01DE072244FF053
:101A90000A0C04EB44070025A4F1710607EB0309C7
:101AA00012F805804F5DA8EB070808FB06F898FBC5
:101AB000FCF8474409F805706D1CEDB2032DEFD317
:101AC000641CE4B27C2CE4D30D2844D01EE07C24BA
:101AD0004FF0160C04EB44070025A4F17B0607EB3E
:101AE000030900BF12F805804F5DA8EB070808FB4B
:101AF00006F898FBFCF8474409F805706D1CEDB238
:101B0000032DEFD3641CE4B2922CE3D30E2844D00F
:101B10001EE092244FF0210C04EB44070025A4F1B1
:101B2000910607EB030900BF12F805804F5DA8EB93
:101B3000070808FB06F898FBFCF8474409F805700D
:101B40006D1CEDB2032DEFD3641CE4B2B32CE3D3D0
:101B50000F2865D01EE0B3244FF0050C04EB4407BA
:101B60000025A4F1B20607EB030900BF12F80580B7
:101B70004F5DA8EB070808FB06F898FBFCF8474404
:101B800009F805706D1CEDB2032DEFD3641CE4B2AF
:101B9000B82CE3D3102862D01EE0B8244FF0030C19
:101BA00004EB44070025A4F1B70607EB030900BFC7
:101BB00012F805804F5DA8EB070808FB06F898FBB4
:101BC000FCF8474409F805706D1CEDB2032DEFD306
:101BD000641CE4B2BB2CE3D311287FF46EAED72093
:101BE000564600EB40070024A0F1D60507EB030C96
:101BF00012F804800F5DA8EB070808FB05F898FBB6
:101C0000F6F847440CF80470641CE4B2032CEFD3DC
:101C1000401CC0B2E528E4D336E601E0F005002020
:101C2000BB20564600EB40070024A0F1BA0507EBA5
:101C3000030C00BF12F804800F5DA8EB070808FB37
:101C400005F898FBF6F847440CF80470641CE4B2FD
:101C5000032CEFD3401CC0B2C928E3D314E6C9203B
:101C6000564600EB40070024A0F1C80507EB030C23
:101C700012F804800F5DA8EB070808FB05F898FB35
:101C8000F6F847440CF80470641CE4B2032CEFD35C
:101C9000401CC0B2D728E4D3F6E57047094C207940
:101CA000022804D0032805D0042803D005E060787A
:101CB000012802D1E520FFF7A5FD012003F038FF40
:101CC000EDE70000800200202DE9F04700244FF0EE
:101CD0003D09224B4FF01D0A3CE000BF204E04EBB3
:101CE00044029119B75C4D788E78002101E00829F3
:101CF0000CD25FEA056C01EBC20802D523F81890FC
:101D000001E023F818A06D062D0E1DE0A1F1080CCE
:101D1000BCF1080F0CD25FEA076C01EBC20802D5D8
:101D200023F8189001E023F818A07F063F0E0BE07F
:101D30005FEA066C01EBC20802D523F8189001E0B7
:101D400023F818A07606360E491C89B21829CED37E
:101D5000641CA4B28442C1D3BDE8F087F00800201F
:101D6000F005002070470000F8B50024009490F8BA
:101D700024202546012A12D0012280F824204A6816
:101D80001F23072A0DD20668776B521E02EB8202D0
:101D900093409F430B6893401F43776319E00220F1
:101DA000F8BD06680D2A0AD2376BD21F02EB8202F9
:101DB00093409F430B6893401F43376309E0F76AE2
:101DC0000D3A02EB820293409F430B6893401F43FE
:101DD000F7620A68072306680A2A0AD3F7680A3AEC
:101DE00002EB420293409F438B6893401F43F7608E
:101DF00008E0376902EB420293409F438B689340AF
:101E00001F4337610A68102A01D0112A20D1124BD2
:101E100002689A4217D193681B0219D4936843F45D
:101E2000000393600968102912D10C490C4A096813
:101E3000B1FBF2F101EB8101490000E0491E009184
:101E40000029FBD104E0816A41F020018162012474
:101E500080F824502046F8BD002401400C000020EA
:101E600040420F00704710B504460068416889067B
:101E700026D50168890723D5A16AC90603D4A16ABA
:101E800041F40071A1628168C1F34241072910D178
:101E9000E16871B9416821F020014160A06A20F435
:101EA0008070A062A06AC00403D4A06A40F0010060
:101EB000A0622046FFF7D6FF21686FF0120008608D
:101EC0002068416809062ED5016849072BD5A16A0B
:101ED000C90603D4A16A41F40051A1628168C1F32B
:101EE0000231072909D04168490515D48168C1F339
:101EF0004241072910D1E16871B9416821F08001A0
:101F00004160A06A20F48050A062A06AC00503D49A
:101F1000A06A40F00100A0622046FFF723FF21687D
:101F20006FF00C0008602068416849060DD5006814
:101F3000C0070AD0A06A40F48030A062204600F0BA
:101F400093F821686FF00100086010BD2DE9F041A1
:101F50004FF0000704003D467ED0A06A002628B955
:101F6000E66284F82460204600F080F82046FEF700
:101F700013FDA16AC90600D420B1A06A40F0100088
:101F8000A06269E0A16A21F4885141F00201A162D6
:101F90006268E169E3680A4347EA43010A43A168CA
:101FA0004FF48077B94209D0012907D05FF00001D2
:101FB000D4F814C0BCF1010F02D00AE03946F7E7AB
:101FC000F3B1A36A43F02003A362E36A43F0010381
:101FD000E3622368D3F804C02CF4694C4CEA010C8A
:101FE000C3F804C021688B68DFF870C003EA0C03F3
:101FF00013438B60A168B9420BD0012909D00CE0D2
:10200000DFF85CC0A3690CEB43330B4343F400617E
:10201000DFE7218A0D05A5F580152168CB6A23F439
:1020200070032B43CB62216889680E4B19409142A3
:1020300008D1E662A16A21F0020141F00101A1622A
:10204000BDE8F081A06A20F0020040F01000A0621C
:10205000E06A40F00100E0620120F1E7FDF7E1FFF6
:1020600000E0FFFFFE0E1FFF7047000030B5054681
:102070000068184985B0884229D11748816941F420
:10208000007181618069694600F40070049001204C
:10209000009003200190114800F006FA114C1048FE
:1020A0008021206000206060C4E9020149002161B4
:1020B000890061612021C4E90610204600F056F92C
:1020C00018B1852108A002F02DFE2C62656205B0D2
:1020D00030BD000000240140001002400008014013
:1020E00008000240240300202E2E2F5372632F730A
:1020F000746D3332663178785F68616C5F6D7370D0
:102100002E63000010B5044690F82400012807D083
:10211000012084F824002046FEF73EFC10B10EE0BA
:10212000022010BD2068816821F480718160206ADE
:1021300000F00EF8A16A30B141F04001A162002127
:1021400084F8241010BD21F4885141F00101F5E715
:1021500001680A6822F00E020A6001680A6822F02B
:1021600001020A6090F84020C36B012101FA02F2DB
:102170005A6080F82110002180F82010084670472E
:1021800010B590F821100024022903D004218163A6
:1021900001243DE001680A6822F00E020A6001682D
:1021A0000A6822F001020A601A4A0168914201D1CC
:1021B000012121E0174A1432914201D110211BE084
:1021C000144A2832914201D1891515E0114A3C3256
:1021D000914201D189140FE00E4A5032914202D14E
:1021E0004FF4803108E00B4A6432914202D14FF43F
:1021F000801101E04FF08071064A083A51600121D8
:1022000080F82110002180F82010416B01B188472F
:10221000204610BD080002402DE9F05FC16B0C683C
:1022200001680B68D0F840C0042202FA0CF2494D54
:10223000DFF824A1494E4A4FDFF828B1DFF828E142
:1022400022422CD05A072AD50A68920603D40A687B
:1022500022F004020A600168A94201D1042219E0B7
:10226000514501D1402215E0B14202D14FF48062C4
:1022700010E0B94202D14FF480420BE0594502D13F
:102280004FF4802206E0714502D14FF4800201E054
:102290004FF080622F4908394A60C16A3BE04FF035
:1022A000020808FA0CF818EA040F4FF000094FF082
:1022B000010235D05FEA837832D50B689B0605D4DE
:1022C0000B6823F00A030B6080F821200168A94203
:1022D00001D1022219E0514501D1202215E0B1427D
:1022E00002D14FF4007210E0B94202D14FF4005213
:1022F0000BE0594502D14FF4003206E0714502D19E
:102300004FF4001201E04FF00072124908394A60A0
:1023100080F82090816A00291AD0BDE8F05F084754
:10232000082505FA0CF5254212D01B0710D50B68BD
:1023300023F00E030B6090F84010C36B02FA01F11A
:102340005960826380F8212080F82090016BE2E7D9
:10235000BDE8F09F080002401C000240300002402F
:1023600044000240580002406C00024030B548B3BF
:1023700008C8154914221944B1FBF2F18900C16360
:1023800012498163022141771A6843F6F0718A434A
:10239000D0E900142143D0E902452C4321430469CC
:1023A0002143446921438469214311431960002179
:1023B00041628162C1620163416301224277017718
:1023C000084630BD012030BDF8FFFDBF00000240CF
:1023D00010B590F820400023012C07D0012480F88C
:1023E000204090F82140012C02D008E0022010BDCE
:1023F00059B101290BD002290BD003290BD001239D
:10240000002180F82010184610BD8262F8E7C262F1
:10241000F6E70263F4E74263F2E770B5044690F82A
:102420002000002501280CD0012084F8200094F819
:1024300021600020012E06D084F8200002252846C5
:1024400070BD022070BD022684F82160A063206860
:10245000066826F0010606602046FEF797FBE06A54
:1024600000282068016802D041F00E0106E021F04A
:10247000040101602068016841F00A0101602068E0
:10248000016841F001010160D9E731B500F0F0F8D1
:10249000009C0546601C00D0641C00F0E9F8401B5D
:1024A000A042FAD338BD00002DE9F84FDFF890A123
:1024B00000220AF1040B144601274FF00F090BF11B
:1024C000040E00BF0B6807FA04F52B40AB4274D131
:1024D000DFF870C14E68A6EB0C0866452BD00DDC0A
:1024E000032E34D005DC36B3012E19D0022E2FD1A5
:1024F0001BE0112E16D0122E2AD119E0B8F5881F34
:1025000019D006DCB8F5803F15D0B8F5801F1FD173
:1025100011E0B8F5001F0ED0B8F5041F18D10AE07D
:10252000CA6815E0CA68121D12E0CA6808320FE0D6
:10253000CA680C320CE08A682AB1012A4FF00802FE
:1025400003D0456104E0042202E0056100E00022BE
:10255000FF2B01D8064601E000F104064FEA84058E
:1025600001D9A5F12005D6F800C009FA05F82CEA32
:10257000080C02FA05F54CEA050CC6F800C04D68D7
:10258000ED0057D5304DAE6946F00106AE61AD693C
:1025900024F0030605F0010500952C4D06EB050C13
:1025A000DCF80850A6074FEA167809FA08F6B54392
:1025B000274EB04202D1002610E03BE0254EB0424B
:1025C00001D101260AE0244EB04201D1022605E0E5
:1025D000224EB04201D1032600E0042606FA08F696
:1025E0002E43CCF808604D68DAF80060ED035546DC
:1025F00001D51E4300E09E432E604D68DBF800606D
:10260000AD035D4601D51E4300E09E432E604D683C
:10261000DEF80060ED02754601D51E4300E09E43E2
:102620002E604D68AD020E4D2E6801D51E4300E0B0
:102630009E432E60641C102CFFF444AFBDE8F88F5D
:102640000004014000001110001002400000014091
:1026500000080140000C014000100140001401403E
:102660000C0401400AB1016170470904FBE7000056
:10267000014800687047000010000020024801680F
:10268000491C01607047000010000020074810B589
:10269000016841F010010160032000F08BF80F2069
:1026A00000F006F800F018F8002010BD00200240ED
:1026B00010B5044607484FF47A710068B0FBF1F09A
:1026C00000F016FC00222146501E00F053F80020B6
:1026D00010BD00000C0000201E4808B5816941F0C3
:1026E00001018161806900F001000090032000F089
:1026F00061F8002211466FF00B0000F03BF8002259
:1027000011466FF00A0000F035F8002211466FF014
:10271000090000F02FF800221146501F00F02AF89F
:1027200000221146101F00F025F800220F21901EF4
:1027300000F020F800220F21501E00F01BF8064880
:10274000416821F0E0614160416841F00071416001
:1027500008BD0000001002400000014000F01F0210
:10276000012191404009800000F1E020C0F80011F3
:1027700070470000F0B40E4B1B680C46C3F30223F5
:10278000C3F10705042D00D90425191D072901D21D
:10279000002300E0DB1E012606FA05F1491E214058
:1027A00099409E40761E16403143F0BC01F05FBD5B
:1027B0000CED00E0064900F0070208684FF6FF0341
:1027C000184040EA0220034A1043086070470000A6
:1027D0000CED00E00000FA052DE9F843054600780D
:1027E000354CC00754D0E0690026C00008D4E06929
:1027F00040F08050E061E069012600F080500090D8
:102800002E480168C90512D40168804641F48071E0
:102810000160FFF72DFF074605E000BFFFF728FF27
:10282000C01B642823D8D8F80000C005F6D5206A5C
:1028300010F4407021D0A98801F4407181421CD06D
:10284000206A1F49012220F440700A6000220A60B9
:102850002062C00711D0FFF70BFF074641F288380E
:1028600008E000BFFFF704FFC11B414502D9032068
:10287000BDE8F883206A8007F4D5206A696820F4EF
:102880004070084320621EB1E06920F08050E06192
:102890002878800705D56068A96820F4404008437F
:1028A00060602878C00605D56068E96820F480007B
:1028B000084360600020DBE7001002400070004029
:1028C00040044242704700002DE9F047DFF83C81A8
:1028D00005460E46D8F8000000F00700B0420CD2C2
:1028E000D8F8001021F007013143C8F80010D8F8DB
:1028F000000000F00700B04263D12878444C800704
:1029000005D56068A96820F0F00008436060287869
:10291000C00745D06868012816D02168022816D063
:10292000890700294DDA616821F0030101436160E4
:10293000FFF79EFE6968074641F2883001290FD0F3
:102940000229814619D027E021688903E9E7890136
:10295000E7E700BFFFF78CFEC11B494501D918E02E
:1029600081466068C0F381000128F3D118E000BF00
:10297000FFF77EFEC11B49450BD86068C0F381009C
:102980000228F5D10CE000BFFFF772FEC11B4945DC
:1029900002D90320BDE8F087606810F00C0FF3D176
:1029A000D8F80010404601F00701B1420BD9016888
:1029B00021F0070131430160006800F00700B042D8
:1029C00001D00120E6E72878400705D56068E9686E
:1029D00020F4E060084360602878000706D560684E
:1029E000296920F4605040EAC100606000F042F8BC
:1029F0006168084AC1F30311515CC8400649086088
:102A00000F20FFF755FE0020C4E700000020024021
:102A100000100240406900080C000020014901201C
:102A2000C8647047000042420148006870470000D7
:102A30000C0000200448054900684968044AC1F3B5
:102A40000221515CC84070470C0000200010024079
:102A5000506900080448054900684968044AC1F300
:102A6000C221515CC84070470C0000200010024099
:102A70005069000810B512A385B00FCB8DE80F0088
:102A800013A0144B006804905A68134802F00C011C
:102A900004290FD008290DD1C2F38344D2031DF8B5
:102AA000041009D55A6804ABC2F340429A5CB0FBEB
:102AB000F2F0484305B010BD08484843FAE700006B
:102AC00002030405060708090A0B0C0D0E0F10106F
:102AD000010200000010024000127A0000093D00CF
:102AE00010B5044CA068000603D5FFF7EBFE80206C
:102AF000A07210BD001002402DE9F84F0446007886
:102B0000B94DC00748D06868C0F38100012807D0DC
:102B10006868C0F38100022809D16868C00306D53F
:102B20002868800338D5606800286FD034E060687A
:102B3000B0F5803F0BD010B1B0F5A02F11D02868B0
:102B400020F480302860286820F4802002E0286883
:102B500040F480302860606888B1FFF789FD064640
:102B600009E0286840F480202860F0E7FFF780FD46
:102B7000801B642875D828688003F7D50CE0FFF720
:102B800077FD064605E000BFFFF772FD801B642855
:102B9000F0D828688003F7D42078944E80074FF04F
:102BA00001094FF000083BD5686810F00C0F07D002
:102BB0006868C0F38100022809D16868C00306D4A0
:102BC0002868800714D5206901281FD110E02069EA
:102BD000B0B1C6F80090FFF74BFD074605E000BF17
:102BE000FFF746FDC01B0228C4D828688007F7D528
:102BF0002868616920F0F80040EAC10028600FE011
:102C0000C6F80080FFF734FD074606E0E9E000BFA4
:102C1000FFF72EFDC01B022823D828688007F7D4B1
:102C2000207800072CD57248A169D9B1C0F800906E
:102C3000FFF71EFD074604E0FFF71AFDC01B022840
:102C40000FD8686A8007F7D56A484FF4FA510068D0
:102C5000B0FBF1F0009000BF0098411E0091FAD245
:102C60000EE080E0C0F80080FFF702FD074604E0B8
:102C7000FFF7FEFCC01B022875D8686A8007F7D4EE
:102C80002078400760D5E8690027C00008D4E869CB
:102C900040F08050E861E869012700F08050009022
:102CA00055480168C90513D40168834641F4807111
:102CB0000160FFF7DDFC824606E000BFFFF7D8FCAD
:102CC000A0EB0A0064284ED8DBF80000C005F5D55B
:102CD000E06801280AD008B1052813D0286A20F03E
:102CE00001002862286A20F0040002E0286A40F00F
:102CF00001002862E06841F2883B98B1FFF7B8FC18
:102D000082460BE0286A40F004002862EEE700BF2C
:102D1000FFF7AEFCA0EB0A0159455AD8286A800794
:102D2000F6D50CE0FFF7A4FC824605E0FFF7A0FC17
:102D3000A0EB0A0159454CD8286A8007F6D41FB188
:102D4000E86920F08050E861E06988B36968C1F300
:102D50008101022945D00228C6F8608004D0FFF71F
:102D600087FC044638E034E0FFF782FC074604E0C5
:102D7000FFF77EFCC01B02282BD828688001F7D4FF
:102D8000206AB0F5803F05D16868A16820F4003062
:102D900008436860D4E908010843696821F47411A4
:102DA00008436860C6F86090FFF762FC044606E0DE
:102DB00015E000BFFFF75CFC001B022809D828685B
:102DC0008001F7D50BE000BFFFF752FC001B022883
:102DD00002D90320BDE8F88F28688001F4D40020D0
:102DE000F8E70120F6E70000001002400000424230
:102DF000800442420C0000200070004070B50400C6
:102E000005D00025A56294F8510010B104E001201E
:102E100070BD204600F034F8022084F8510020688C
:102E2000016821F040010160D4E901010843D4E9BF
:102E300003121143084361690843218B01F40071B7
:102E40000843E1690843216A0843A16A08432168ED
:102E50000860A069042101EA1040616A0843216802
:102E600048602168E06A08612068C16921F4006156
:102E7000C1616565012084F85100002070BD00002B
:102E800010B50068114986B088421CD1104881698C
:102E900041F48051816180690E4C00F480500490AF
:102EA000A020009002200190032003906946204654
:102EB000FFF7FAFA00214020CDE9000102916946AE
:102EC0002046FFF7F1FA06B010BD000000300140C7
:102ED00000100240000801404FF0E021042808697A
:102EE00003D020F004000861704740F00400FAE7C6
:102EF00010B5401EB0F1807F01D3012010BD4FF00E
:102F0000E02460610F21601701F0B1F90020A06199
:102F100007202061002010BD7047704730B590F841
:102F20003C20012A20D0012280F83C20022380F896
:102F30003D3003685C6824F070045C6003685C6882
:102F40000D682C435C6003689C6824F080049C60DE
:102F500003689C6849680C439C6080F83D20002110
:102F600080F83C10084630BD022030BD10B504008A
:102F700003D094F83D0010B107E0012010BD0020FF
:102F800084F83C00204600F00DF8022084F83D0053
:102F9000211D206801F02CFA012084F83D0000205A
:102FA00010BD000038B5054600681949B0F1804FE2
:102FB0000BD0184A904207D1C86940F00200C8619E
:102FC000C86900F00200009038BDC86940F00100F7
:102FD000C861C869114C00F0010000900E482060E3
:102FE0001020606000208021C4E9020149002161B5
:102FF0008900C4E905108800E0612046FFF7B6F9B2
:1030000018B1FF2106A001F08DFE6C62656238BD2B
:10301000001002400004004058000240400400201C
:103020002E2E2F5372632F73746D3332663178787E
:103030005F68616C5F6D73702E63000070B504464D
:1030400090F83C00012817D0012584F83C5002205C
:1030500084F83D002068826822F0770222F47F42E3
:1030600082600868502837D00DDC202859D005DC54
:1030700088B3102841D151E0022070BD302853D0D0
:1030800040283AD13FE060282ED070280BD0B0F510
:10309000805F03D0B0F5005F2FD110E02068816819
:1030A00021F0070115E0CB68D1E90121206801F08A
:1030B00007FA2168886840F0770088601DE0CB68D7
:1030C000D1E90121206801F0FBF92068816841F411
:1030D0008041816011E01EE0CA684968206801F003
:1030E000A3FA5021206806E0CA684968206801F008
:1030F000ACFA6021206801F0EDF984F83D50002021
:1031000084F83C0070BDCA684968206801F08CFAF8
:1031100040212068EFE700212068ECE710212068BB
:10312000E9E720212068E6E730212068E3E77047DF
:10313000704770B50446006801694FF00005C94347
:10314000890715D4C168C943890711D4E91E0161F3
:1031500001202077206880698007204602D0FFF791
:10316000E7FF04E000F0B6F8204600F038F92577D4
:1031700020680169C943490717D4C168C943490791
:1031800013D46FF004010161022020772068806968
:1031900010F4407F204602D0FFF7CAFF04E000F0A1
:1031A00099F8204600F01BF9257720680169C9438A
:1031B000090716D4C168C943090712D46FF0080182
:1031C0000161042020772068C0698007204602D072
:1031D000FFF7AEFF04E000F07DF8204600F0FFF8B6
:1031E000257720680169C943C90617D4C168C94356
:1031F000C90613D46FF01001016108202077206800
:10320000C06910F4407F204602D0FFF791FF04E030
:1032100000F060F8204600F0E2F8257720680169A8
:10322000C943C90708D1C168C943C90704D1891E68
:103230000161204600F088F920680169C943090648
:1032400009D4C168C943090605D46FF08001016142
:103250002046FFF761FE20680169C943490609D489
:10326000C168C943490605D46FF040010161204699
:1032700000F06BF920680169C94389060BD4C16865
:10328000C943890607D46FF0200101612046BDE8DB
:103290007040FFF742BE70BD1FB50068B0F1804FAF
:1032A00012D14FF400400090022001900390694633
:1032B0000648FFF7F9F80648416821F4407141607B
:1032C000416841F4807141601FBD00000008014069
:1032D00000000140704770B5044690F83C000D4670
:1032E00001280DD0012684F83C60022084F83D00BE
:1032F00042B1042A18D0082A2AD00C2A4DD139E02C
:10330000022070BD206801F0EDF82068816941F06D
:10331000080181612068816921F0040181612068D0
:1033200081692A69114311E0206801F003F92068DE
:10333000816941F4006181612068816921F48061C3
:103340008161206881692A6941EA0221816124E062
:10335000206801F01BF92068C16941F00801C161D2
:103360002068C16921F00401C1612068C1692A692E
:10337000114311E0206801F035F92068C16941F47A
:103380000061C1612068C16921F48061C161206868
:10339000C1692A6941EA0221C16184F83D600020C7
:1033A00084F83C0070BD10B5040003D094F83D00D3
:1033B00010B107E0012010BD002084F83C00204639
:1033C00000F00CF8022084F83D00211D206801F077
:1033D0000FF8012084F83D00002010BD70477047B1
:1033E00070B5044690F83D0016460D46022805D0FB
:1033F00094F83D00012805D10EB903B170BD02203B
:1034000084F83D002C482D4935B1042D13D0082DEA
:1034100034D00C2D1ED140E0626A9062606A016374
:10342000226831463432606AFEF7F7FF2068C168CF
:1034300041F400710DE0A26A9062A06A0163226803
:1034400031463832A06AFEF7E8FF2068C16841F4CF
:103450008061C16001222946206800F0FFFF184901
:103460002068884203D1416C41F4004141642068E6
:10347000016841F001010160002070BDE26A9062C4
:10348000E06A0163226831463C32E06AFEF7C5FF1C
:103490002068C16841F40061DBE7226B9062206B19
:1034A0000163226831464032206BFEF7B6FF206888
:1034B000C16841F48051CCE773440008B14400086E
:1034C000002C014010B50268044631B1042908D02F
:1034D00008292FD00C2908D130E0D06820F40070E2
:1034E00002E0D06820F48060D0600022206800F004
:1034F000B5FF144B41F2111120688A10984209D18E
:10350000036A0B4206D1036A134203D1436C23F4CE
:10351000004343642068036A0B4206D1016A1142EA
:1035200003D1016821F001010160012084F83D0010
:10353000002010BDD06820F40060D5E7D06820F4EA
:103540008050D1E7002C01407047704710B5044609
:103550000068416994F83920C1F3C011212A0BD1C8
:1035600051B1416921F080014161206B08B1FEF742
:10357000EFFD204601F0F5F82068416994F83A2003
:10358000C1F38011222A0BD151B1416921F04001D0
:103590004161606B08B1FEF7DBFD204601F0D3F816
:1035A000002010BD7047000070B502680446106826
:1035B000D168536910F00F0F50D003F0010501F4EA
:1035C000907635435DD0C20705D0CA0503D5E26BBE
:1035D00042F00102E263420705D5DA0703D0E26B4D
:1035E00042F00202E263820705D5DA0703D0E26BFC
:1035F00042F00402E263020705D5DA0703D0E26B6A
:1036000042F00802E263E26B002A33D0800604D560
:10361000880602D5204601F0ADF820684069E16BCC
:10362000C0F38010090700D428B3204601F08BF8BE
:103630002068416949061AD5416921F0400141617C
:10364000606BA0B11B494163606BFEF799FD0028D8
:1036500010D0606B416BBDE870400847830610D501
:103660008B060ED52046BDE8704001F083B8204699
:10367000FFF798FF70BD2046FFF794FF0020E0633E
:1036800070BD030606D50B0604D52046BDE8704084
:1036900001F074B94006F3D54806F1D5D16820464B
:1036A00021F04001D160202184F8391000F0AEF9FA
:1036B00070BD00006F46000870B5040004D094F897
:1036C0003900002510B106E0012070BD84F83850A3
:1036D000204600F023F8242084F839002068C168CF
:1036E00021F40051C160204601F090F82068016982
:1036F00021F4904101612068416921F02A01416172
:103700002068C16841F40051C160E563202084F85D
:10371000390084F83A00002070BD0000F0B506467C
:1037200003683648344F022103220515002485B072
:10373000BB4219D1836943F4804383618069304E71
:1037400000F4804004900802CDE90001039269462C
:103750003046FEF7A9FECDE9005469463046029492
:10376000FEF7A2FE05B0F0BD264FBB42FAD1C369F9
:1037700043F48023C361C069CDE9005100F4802087
:10378000CDE90320204D69462846FEF78DFEE8145A
:10379000CDE90004694628460294FEF785FE1C4DDB
:1037A0001A488027C5E90004C5E902472C616C610D
:1037B000AC612846EC61FEF7D9FD20B14FF4CB7126
:1037C00014A001F0AFFA75636E621048184D1438FA
:1037D00001C5102091C5164845F810496C61AC61CF
:1037E000EC61FEF7C3FD20B14FF4D37109A001F0E5
:1037F00099FA35636E62B5E7003801400010024067
:103800000008014000480040000C01403000024028
:10381000040500202E2E2F5372632F73746D3332E4
:10382000663178785F68616C5F6D73702E6300003D
:1038300048050020F8B5044690F83A0020283CD10D
:10384000C1B3BAB394F83800012836D0012084F807
:103850003800A162A2850025E563222084F83A00A1
:10386000636B17489862636B1648D862636B16489F
:103870001863606B134645630846666B2168024611
:103880003046091DFEF7C9FD2068016841680091B6
:1038900084F83850C16841F48071C1602068416982
:1038A00041F0010141612068416941F040014161FD
:1038B0000020F8BDFFE70120FBE70220F9E7000048
:1038C000C9460008054700087F4600087047704752
:1038D0002DE9F843044690F839001F4616460D4678
:1038E000202850D1A5B19EB194F8380001284AD0C3
:1038F000012084F838004FF00008C4F83C802120F3
:1039000084F83900FEF7B4FEA6848146E68426E0FA
:103910000120BDE8F883E08C401EE084A0684B469F
:10392000B0F5805F4FF000024FF080012046009715
:1039300003D001F054F8E8B90DE001F050F8C8B92F
:1039400028882168C0F308004860206908B16D1C10
:1039500005E0AD1C03E0216815F8010B4860E08C20
:103960000028D8D14B46002240212046009701F084
:1039700036F808B10320CCE7202084F8390084F819
:1039800038800020C5E70220C3E7000070B5044678
:1039900090F83900202830D169B362B394F8380028
:1039A00001282AD0012084F838002162A284E28410
:1039B0000025E563212084F83900236B10489862C4
:1039C000236B1048D862236B0F481863206B134693
:1039D00045632668206B321DFEF71FFD21686FF0DE
:1039E0004000086084F838502068416941F0800147
:1039F0004161002070BD012070BD022070BD00003B
:103A00000F4700083D4700087F4600087047704791
:103A10002DE9F05F0646DDE90A45334899469046B0
:103A20000F4682460346DFF8C4B0002220462946EE
:103A3000FCF732FE4FF0000205D2534620462946DD
:103A4000FCF7D5FC0BE0002320462946FCF70CFED2
:103A500007D20022534620462946FCF727FC04469D
:103A60000D4600225B4620462946FCF7FDFD08D2A4
:103A700042464B4630463946FCF7BCFC22462B46B4
:103A800023E000221A4B20462946FCF7EDFD03D225
:103A900040464946BDE8F09FDFF858A00022534653
:103AA00020462946FCF7E0FD1BD222462B4600208B
:103AB0005146FCF79CFC05460C4642464B463046B8
:103AC0003946FCF797FC2A462346FCF796FC002271
:103AD0005B46FCF704FD32463B46BDE8F05FFCF771
:103AE000E5BB30463946D5E70080764000004E40C1
:103AF0000080664000006E402DE9FF4F87B0724C99
:103B0000DDE91689DDE914AB0022704B40464946D9
:103B1000FCF7AAFD0AD2DDE9180100222346FCF7D2
:103B2000C5FB42464B46FCF768FC0DE0DDE9182377
:103B300000202146FCF75BFC42464B46FCF75DFC4F
:103B4000DDE91823FCF7B2FB04460D46012240468E
:103B50004946FCF733FD22462B46FCF748FC064657
:103B60000F46DDE9180100221346FCF77DFD4FF0FA
:103B7000000221D1564B40464946FCF73EFCFCF77B
:103B800046FDC4B209980021524B04700898047095
:103B9000079804700AE001EB410200201A44145413
:103BA000401C80B20328FAD3491C89B21A9881427A
:103BB000F1D30BB0BDE8F08F474859468046034625
:103BC0005046FCF773FBCDE90201CDE90001224626
:103BD0002B4630463946FFF71BFFDFF8F4900022F2
:103BE0004B46FCF70AFCFCF712FD079922462B46D0
:103BF000087030463946CDE900ABFFF709FF0022D7
:103C00004B46FCF7FAFBFCF702FD089900224346FD
:103C1000087050465946FCF7EAFBCDE90401CDE9AE
:103C2000000122462B4630463946FFF7F1FE0022BE
:103C30004B46FCF7E2FBFCF7EAFC09990870002010
:103C40003CE000BFDDE90201CDE9000122462B4640
:103C500030463946FFF7DCFE00221D4BFCF7CDFB5A
:103C6000FCF7D5FC1B4A08EB48092B4602F8090073
:103C7000224630463946CDE900ABFFF7C9FE0022A7
:103C8000134BFCF7BAFBFCF7C2FC124A2B469144DB
:103C9000224689F80100DDE90401CDE90001304642
:103CA0003946FFF7B5FE0022094BFCF7A6FBFCF7EF
:103CB000AEFC89F8020008F1010080B280461A9833
:103CC0008045BFD375E700000000F03F0000E03FF3
:103CD00000E06F40F005002000005E402DE9FF4F3E
:103CE00087B06849DDE914ABDDE916891A98644CA0
:103CF00000EB40000390084402900022624B4046D3
:103D00004946FCF7B1FC0AD2DDE91801002223463E
:103D1000FCF7CCFA42464B46FCF76FFB0DE0DDE9C1
:103D2000182300202146FCF762FB42464B46FCF775
:103D300064FBDDE91823FCF7B9FA04460D460122BD
:103D400040464946FCF73AFC22462B46FCF74FFB1F
:103D500006460F46DDE9180100221346FCF784FCF5
:103D60004FF0000217D1494B40464946FCF745FB4E
:103D7000FCF74DFCC1B209980170089801700798D2
:103D800001700020029A1154401C80B20328F9D31C
:103D90000BB0BDE8F08FDFF8F88050464346594637
:103DA000FCF784FA81460591CDE9009122462B4625
:103DB00030463946FFF72CFE0022344BFCF71DFB42
:103DC000FCF725FC079922462B46087030463946F9
:103DD000CDE900ABFFF71CFE00222C4BFCF70DFBDE
:103DE000FCF715FC089900224346087050465946D6
:103DF000FCF7FDFA8046CDE90081049122462B466E
:103E000030463946FFF704FE0022204BFCF7F5FA56
:103E1000FCF7FDFB099922462B46087005993046B0
:103E2000CDE900913946FFF7F3FD0022174BFCF76F
:103E3000E4FAFCF7ECFB1349039A2B46885422461C
:103E400030463946CDE900ABFFF7E2FD00220F4BCB
:103E5000FCF7D3FAFCF7DBFB029922462B464870AD
:103E600004993046CDE900813946FFF7D1FD0022A3
:103E7000064BFCF7C2FAFCF7CAFB0299887087E789
:103E80000000F03FF00500200000E03F00E06F4040
:103E900000005E40FEE700003EB5124800241049D5
:103EA0008460C46044610160012505614FF4002114
:103EB0004460C161FEF74AF818B11E210AA000F063
:103EC00031FF02200094CDE9015069460548FDF715
:103ED0004BFF002803D0282103A000F023FF3EBDA4
:103EE00000240140F40200202E2E5C4253505C62FC
:103EF00073705F6164632E63000000000D4808B5B5
:103F0000416941F0010141614069002200F0010076
:103F1000009011460C20FEF72DFC0C20FEF71EFC35
:103F2000002211460D20FEF725FCBDE808400D20BB
:103F3000FEF714BC001002402DE9F041224886B083
:103F4000816941F020018161816901F020010491C2
:103F5000816941F004018161816901F004010491EA
:103F6000816941F0080181618069184F00F0080003
:103F70000490002218213846FEF774FBDFF85080C9
:103F80004FF44056002231464046FEF76BFB1820A6
:103F90000124CDE900040225694603953846FEF761
:103FA00083FA0C486946CDE9004000200290404663
:103FB000FEF77AFACDE90064694640460395FEF7BC
:103FC00073FA06B0BDE8F08100100240000801401D
:103FD000000C01400000111010B5002205210B203B
:103FE000FEF7C8FB0B20FEF7B9FB002205210F20CE
:103FF000FEF7C0FB0F20FEF7B1FB002205211220C7
:10400000FEF7B8FB1220FEF7A9FB002205211C20B9
:10401000FEF7B0FB1C20FEF7A1FB002205211D20AE
:10402000FEF7A8FB1D20FEF799FB002205212720A3
:10403000FEF7A0FBBDE810402720FEF78FBB000075
:10404000114810B50F4901604FF4827141600021A1
:104050008160C1604FF400720161C0E9051208225D
:10406000C0E90721416281620A21C162FEF7C6FEF2
:10407000002805D0BDE81040232104A000F052BE66
:1040800010BD000000300140680300202E2E5C426D
:1040900053505C6273705F6E726632346C30312ED6
:1040A0006300000010B523488EB04FF0804100241B
:1040B000C0E900145921C0E9024104618461FEF79E
:1040C00055FF18B118211CA000F02CFE4FF48050B1
:1040D000079007A91748FEF7B1FF18B11E2116A0D7
:1040E00000F020FE1348FFF75EF918B1232112A05B
:1040F00000F018FE0B940BA90E480C94FEF70EFF6F
:1041000018B12A210CA000F00DFE6020CDE90004BA
:1041100002940022694607480494FFF7DCF818B1BE
:10412000332105A000F0FEFD0248FFF7B5F80EB000
:1041300010BD0000C00300202E2E5C4253505C6274
:1041400073705F74696D2E630000000010B518482D
:1041500086B01649016048210024C0E90114642199
:10416000C0E903148461FEF701FF18B1492111A0D1
:1041700000F0D8FD4FF48050009069460C48FEF7DF
:104180005DFF18B14F210BA000F0CCFD2020CDE940
:10419000040404A90648FEF7C1FE002803D05621F6
:1041A00004A000F0BFFD06B010BD000000040040F8
:1041B000000400202E2E5C4253505C6273705F74CA
:1041C000696D2E63000000000D4810B50B490160B9
:1041D0004FF4E1314160002181600C22C160C0E9EF
:1041E00004128161C161FFF767FA002805D0BDE8BC
:1041F00010401F2103A000F095BD10BD0038014004
:10420000840400202E2E5C4253505C6273705F75F4
:10421000736172742E6300000D4810B50B49016084
:104220004FF461414160002181600C22C160C0E90E
:1042300004128161C161FFF73FFA002805D0BDE893
:104240001040342103A000F06DBD10BD00480040B7
:10425000C40400202E2E5C4253505C6273705F7564
:10426000736172742E630000FEE7FEF739BC090724
:10427000090E002806DA00F00F0000F1E02080F8B7
:10428000141D704700F1E02080F800147047000012
:1042900038B51349CA6942F00102CA61C969124CB2
:1042A00001F0010100910F4921601021616000219E
:1042B000A1608021E160490021618900C4E9051005
:1042C0008800E0612046FEF751F820B140F2B911B4
:1042D00006A000F027FD0A484462606238BD000075
:1042E0000010024058000240400400202E2E5C4284
:1042F00053505C6273705F7773323831322E6300D3
:10430000C003002010B5FEF7B9F9BDE8104001F078
:104310001BBC30B593B001210804CDE90010002585
:10432000029502240491CDE907404FF4E010099072
:104330006846FEF7E1FB00B1FEE70AA90F2081E81D
:1043400031004FF48060CDE90D0502210AA8FEF787
:10435000BBFA00B1FEE74FF4004011900F940FA894
:10436000FEF73AFA00B1FEE7FEF758FBFEF75CFBFA
:104370004FF47A71B0FBF1F0FEF7BAFD0420FEF7BE
:10438000ABFD00220F21501EFEF7F4F913B030BD33
:104390000D48016841F00101016041680B4A11407C
:1043A000416001680A4A11400160016821F48021DE
:1043B0000160416821F4FE0141604FF41F018160FA
:1043C0000449C00308607047001002400000FFF875
:1043D000FFFFF6FE08ED00E00148FEF7AABE000070
:1043E000C00300200148FEF7A4BE00000004002026
:1043F000F0B50268164B174C174D4FF080479842A6
:1044000005D0B84203D0A04201D0A84203D122F087
:1044100070064A683243984205D0B84203D0A042A1
:1044200001D0A84203D122F44074CA68224322F08A
:1044300080044A69224302608A68C2620A68826212
:10444000984201D10969016301214161F0BD000079
:10445000002C0140000400400008004010B501237A
:10446000046A8B409C430462036A8A4013430362DC
:1044700010BD10B5446A012184F83D10626A824281
:1044800001D121770EE0A16A814201D1022008E02A
:10449000E16A814201D1042003E0216B814201D114
:1044A000082020772046FEF79AFF0020207710BDD5
:1044B00010B5406A012180F83D10FEF738FE10BDAE
:1044C00010B5846842EA032224F47F440A4322435D
:1044D000826010BD826822F070020A4342F0070138
:1044E0008160704730B5026A22F001020262026AFE
:1044F0004368846924F073050C682C4322F002059C
:104500008A682A430A4DA8420BD122F00805CA68DE
:1045100023F440732A434D6922F004021D438B6942
:104520002B434360846149684163026230BD0000EF
:10453000002C014030B5026A22F010020262026AC9
:10454000436884690D6824F4E64444EA05248D68D0
:1045500022F0200242EA05120B4DA8420ED1CD688E
:1045600022F0800242EA05124D6923F4406343EAD7
:1045700085038D6922F0400243EA8503436084612C
:1045800049688163026230BD002C014030B5026A87
:1045900022F480720262036A4268C46923F40073E1
:1045A00024F073050C682C438D6843EA05230C4DF9
:1045B000A8420ED1CD6823F4006343EA05234D6978
:1045C00022F4405242EA05128D6923F4806342EAE4
:1045D00005124260C4614968C163036230BD0000D6
:1045E000002C014030B5026A22F480520262046A53
:1045F0004268C3690D6823F4E64343EA05238D68E6
:1046000024F4005444EA0534064DA84204D14D690F
:1046100022F4804242EA85124260C3614968016423
:10462000046230BD002C014010B5036A046A24F016
:1046300001040462846924F0F00444EA021423F0C3
:104640000A020A438461026210BD10B5036A23F0B6
:10465000100303628369046A23F4704343EA02325D
:1046600024F0A00343EA01118261016210BD10B57C
:10467000406A0021C185C184FEF794FF10BD70B56A
:10468000446A2068406994F83910C0F3C0100025CE
:10469000212904D118B1E584204600F062F8206891
:1046A000406994F83A10C0F38010222904D118B15F
:1046B000E585204600F047F8E06B40F01000E0632D
:1046C0002046FEF76FFF70BD10B50146406A0968CD
:1046D0000968890613D40021C1850168CA6822F4DB
:1046E0008072CA6001684A6922F001024A61016869
:1046F0004A6922F040024A61202180F83A10FFF70F
:10470000E5F810BD10B5406AFFF7E1F810BD10B52F
:104710000146406A0968096889060CD40021C184F1
:1047200001684A6922F080024A610068C16841F06C
:104730004001C16010BDFFF769F910BD10B5406AB6
:10474000FFF765F910BD0168CA6822F49072CA606B
:1047500001684A6922F001024A61202180F83A107A
:1047600070470168CA6822F0C002CA60202180F840
:104770003910704710B590F83A10222901D0022064
:1047800010BD8168B1F5805F11D001690029016811
:104790001FD0496801F07F03816A4A1C82620B7056
:1047A000C18D491E0904090CC18518D02BE002698E
:1047B000816A002A0268526805D0D2B20A80816AF2
:1047C000491C8162ECE7C2F308020A80816A891CF5
:1047D000F7E74A68816A4B1C83620A70E0E7016868
:1047E000CA6822F02002CA600168CA6822F4807296
:1047F000CA6001684A6922F001024A61202180F8FA
:104800003A10FFF763F8002010BD00002DE9F041D9
:10481000044600680169E26821F4405111430161D6
:104820002169A0680843616908432168CA6841F2A8
:104830000C639A430243CA6020684169A26921F46B
:104840004071114341614C492068642532268842F9
:104850003CD1FEF7FFF800EBC00101EB00106168EE
:104860008900B0FBF1F7FEF7F5F800EBC00101EBB2
:1048700000106168B0468900B0FBF1F0B0FBF5F0C4
:104880006FF01801484307EB800106EB0110B0FB05
:10489000F5F000F0F006FEF7DDF800EBC00101EBEB
:1048A000001061688900B0FBF1F0B0FBF5F006EB99
:1048B0000016FEF7CFF800EBC00101EB00106168B5
:1048C0008900B0FBF1F7FEF7C5F83BE0FEF7B2F860
:1048D00000EBC00101EB001061688900B0FBF1F74B
:1048E000FEF7A8F800EBC00101EB00106168B046CC
:1048F0008900B0FBF1F0B0FBF5F06FF01801484310
:1049000007EB800106EB0110B0FBF5F000F0F006BC
:10491000FEF790F800EBC00101EB00106168890020
:10492000B0FBF1F0B0FBF5F006EB0016FEF782F8F5
:1049300000EBC00101EB001061688900B0FBF1F7EA
:10494000FEF778F800EBC00101EB00106168890008
:10495000B0FBF1F0B0FBF5F06FF01801484307EB46
:10496000800108EB0110B0FBF5F0216800F00F00AA
:1049700030448860BDE8F0810038014090F839107B
:10498000212901D0022070478168B1F5805F016A5A
:104990000BD04A1C0262026809785160C18C491E22
:1049A0000904090CC1840ED017E009880268C1F31C
:1049B0000801516001690029016A02D0491C0162A5
:1049C000ECE7891CFBE70168CA6822F08002CA6034
:1049D0000068C16841F04001C160002070472DE9C6
:1049E000F041984617460E460446069D1DE0681C99
:1049F0001BD02DB1FDF73CFEA0EB0800A84214D956
:104A00002068C16821F4D071C1602068416921F03B
:104A100001014161202084F8390084F83A00002027
:104A200084F838000320BDE8F0812068006836EA89
:104A3000000004D00020B842D9D00020F3E70120C4
:104A4000F9E7000010B50449044800F00AF8BDE891
:104A500010400248FEF7A8BD50090020C404002001
:104A6000FEE738B5054600680C460168C943C9062B
:104A700015D40168406800902846FEF767FD686B12
:104A8000006840684FF47A72C0F57A706080012047
:104A90002070A11D2846BDE83840FEF7CBBE38BDCA
:104AA0002DE9FC47DFF88C910446164699F8000082
:104AB00001287AD1002003E00A5C2254401C80B215
:104AC000B042F9D320780027FF283CD16078FE2837
:104AD000FBD1A51915F8030CFF28F6D115F8040C25
:104AE000FE28F2D1A0780128EFD1B11E2046FBF7B5
:104AF0008BFF8046014650A000F016F915F8010C16
:104B000015F8021D00EB012150A000F00DF96878A6
:104B1000297800EB0121414515D1E078504D4FF047
:104B2000010808287CD2DFE800F0043341464F55E5
:104B30007B71607A4B49012806D002280FD00328E8
:104B400014D004281DD06BE0086801F065FC85F8DE
:104B5000048001F0A3FA44A000F0E6F860E00868E1
:104B600001F0CCFC0220287141A005E0086801F0AA
:104B7000C5FC0320287140A000F0D6F801F08EFAA1
:104B80004EE0086801F0BAFC042028713CA0F3E76D
:104B90002879022844D1324621463B48FEF7F6FEEA
:104BA0006F70E520FCF710F83AE040E02879022821
:104BB00036D16F7011E02879022831D112222146B6
:104BC0003148FEF7E3FE2BE02879022828D185F84A
:104BD000018019E02879032822D1607A8DF800003D
:104BE000A07A8DF80100E07A8DF80200207B8DF824
:104BF0000400607B8DF80500A07B8DF80600E0794D
:104C000001AA6946FCF714FE3246D8E72879042841
:104C100006D10D3EB2B204F109011C48FCF70AFDB1
:104C20004C464FF47A71A01DFBF703FB2770BDE8DB
:104C3000FC87000050090020637265616D43524398
:104C4000313A253034780D0A000000006372656146
:104C50006D435243323A253034780D0A000000008B
:104C600080020020040000206D6F7368693100002D
:104C70006D6F7368693200006D6F7368693300008F
:104C80006D6F736869340000C4040020F0050020D3
:104C900001F004FA224D4FF43474287901283AD1F6
:104CA0000122FF21E520FBF7C1FF0222FF21E520C1
:104CB000FBF7BCFF0322FF21E520FBF7B7FF022231
:104CC000FF21E520FBF7D8FF0122FF21E520FBF7BC
:104CD000FFFFE520FCF76AF8E520FCF7BDF8214668
:104CE000E520FCF7FDF8E52000F0AAFDE52000F046
:104CF0001FFEE52001F090FCE520FCF7F1F9002112
:104D0000E520FCF745FC0121E520FCF741FC0221F0
:104D1000E520FCF73DFC012000F00AFFBDE70000A4
:104D200080020020FEE700000FB4054B10B503A978
:104D3000044A029800F052FB10BC5DF814FB00001E
:104D40008D5A0008EC020020490050EAC12018BF2B
:104D500004204A0D18BF40F0010040F2FF72B2EB90
:104D6000515F08BF40F00200012808BF05207047CE
:104D70002DE9F74F144694B00021C4E902111599AA
:104D8000079121F00045C9498D4206DC1599C4E917
:104D9000000117B00020BDE8F08FC549DFF814A36B
:104DA000A9423CDD0799C44E0029C44FC44A159955
:104DB000534619DDFBF71BFB554506D0C14AC24BD4
:104DC000FBF715FBC4E900010AE04FF0D352BE4BDC
:104DD000FBF70DFB32463B46FBF709FBC4E900013C
:104DE00017B00120BDE8F08FFBF760FA554506D0FB
:104DF000B44AB54BFBF75AFAC4E900010AE04FF098
:104E0000D352B14BFBF752FA32463B46FBF74EFA10
:104E1000C4E9000117B04FF0FF30BDE8F08FAB4997
:104E2000A942159978DB21F0004183468846A84ABB
:104E3000A84BFBF7E2FA0022A74BFBF737FAFBF788
:104E400068FD0990FBF754FD06460F469C4A534601
:104E5000FBF7D3FA43465A46FBF7CCFA80468A461C
:104E6000984A994B30463946FBF7C7FA2A0D012577
:104E70000B9242465346FBF7BDFA032DC4E90001ED
:104E800039D00B98C1F30A51401A05EB451111397D
:104E9000814230DA9148C346784400EB0510CDF8E2
:104EA0000CA00C90D0E9002330463946FBF7A5FA58
:104EB00002460B460491069058460399FBF797FA71
:104EC00080468A4602460B4658460399FBF78FFAFE
:104ED000049B069AFBF78BFA83460C98039139469C
:104EE000D0E902233046FBF788FA5A46039BFBF7CA
:104EF0007EFA6D1CBDE707980028A2BF099817B07D
:104F0000BDE8F08F616881F000416160099817B0D9
:104F10004042BDE8F08FFFE784461598C1F31301C6
:104F2000C0F30A50A0F2F5304FEA601800F01F06F7
:104F3000C6F12000139000200690079041F4801ED7
:104F400005206D4676B1664A08EB00017A4452F8B6
:104F5000213002EB8101B3404A68139922FA01F132
:104F6000194305E05F4908EB0002794451F822102B
:104F7000A1FB0E27A1FB0C131A449A4234BF012354
:104F8000002303EB070A05EB8003D3E901B70F44C5
:104F90008F4234BF0121002193448B4411B19345CA
:104FA00002D903E0934501D2012100E00021C3E9C9
:104FB00001B7514445F82010011EA0F10100C1DCE9
:104FC0000298059F00F10050800F12900298DDE9D1
:104FD00003568000FBF78CFC834628460D91FBF7B7
:104FE00009FB6FF01D02FBF7E9FACDE90E0130462F
:104FF000FBF700FB6FF03D02FBF7E0FA80468A46C4
:105000003846FBF7F7FA6FF05D02FBF7D7FA074671
:10501000424653461191FBF749F9DDE90E23FBF7B0
:1050200045F95A460D9BFBF741F900250E465A46B5
:1050300028460D9BFBF7DBF9DDE90E23FBF7D7F9DB
:1050400042465346FBF7D3F93A46119BFBF7D2F998
:10505000DFF898A0244A5346FBF7CFF90746884665
:10506000234A244B31462846FBF7C7F93A464346C4
:10507000FBF71CF9074688464FF0A84253463146D5
:105080002846FBF7BAF93A464346FBF70FF9159A5B
:1050900012F0004F04D0129A81F000415242129255
:1050A000C4E90001129817B0BDE8F08FFB21E93F79
:1050B0007CD90240FB21F93F7370032E8A19A33B70
:1050C000000040543163621A61B4D03DFB21394184
:1050D00083C8C96D305FE43F0000E03FEC1A000078
:1050E000681A00004A1A0000182D4454FB21F93DAB
:1050F0003326A611460B113C2DE9FF4D21F0004847
:1051000007460C46B8F1795F08DAFBF702FC002885
:1051100001BF0020324904B0BDE8F08D3A46234675
:1051200010461946FBF769F9054602462D480E461A
:105130000B460621784400F05DF82A463346FBF71B
:105140005CF9DDE9022382468B4638462146FBF7AF
:1051500054F904460F4652465B4628463146FBF753
:105160004CF922463B46FBF742F907468A464FF088
:10517000FF3228463146FBF721FA1B4A90450ADAEE
:105180003A465346FBF733F904B00022BDE8F04D30
:10519000134BFBF72FB9154A4245A8BFA8F50015D8
:1051A0004FF00004B8BF124D22462B46FBF71FF903
:1051B0000646884622462B4600200949FBF717F988
:1051C00004460D463A46534630464146FBF70FF932
:1051D00004B022462B46BDE8F04DFBF70BB90000AA
:1051E0000000F03F201800003333D33F0000E93FB8
:1051F0000000D23F2DE9F0414F1E00EBC7010446ED
:10520000D1E9000115461E4637F006020DD02A46A8
:105210003346FBF7F2F87F1E04EBC703D3E9002304
:10522000FBF744F837F00602F1D1022F25D0042F06
:1052300013D0062F18BFBDE8F0812A463346FBF78E
:10524000DCF8D4E90A23FBF731F82A463346FBF7AA
:10525000D4F8D4E90823FBF729F82A463346FBF7AC
:10526000CCF8D4E90623FBF721F82A463346FBF7AE
:10527000C4F8D4E90423FBF719F82A463346FBF7B0
:10528000BCF8D4E90223FBF711F82A463346FBF7B2
:10529000B4F8D4E90023BDE8F041FBF707B80000FB
:1052A0002DE9FF4D054621F0004084B00C46B0F1D9
:1052B000795F0BDA2846FFF747FD042808BF00F0A6
:1052C0006FF8284608B02146BDE8F08D2A460B4607
:1052D0001046FBF792F806460F462A462346FBF790
:1052E0008CF8804626488A4632463B46052178445B
:1052F000FFF780FF83461098029160B3214A224B4A
:1053000040465146FBF779F8CDE900015A46404640
:105310005146029BFBF771F882468846DDE906019B
:105320004FF0FF32FBF74AF952464346FBF75FF86E
:1053300032463B46FBF761F8DDE90623FBF757F8F9
:10534000DDE90023FBF753F808B02A462346BDE801
:10535000F04DFBF74FB80B465A4630463946FBF73F
:105360004CF8084A084BFAF7A1FF42465346FBF7B0
:1053700044F808B02A462346BDE8F04DFAF796BF38
:105380005E170000495555555555C5BF0122FBF71D
:1053900015B90022134610461146FBF7A0B80000CD
:1053A000024A00201107FBF709B9000001FDFFFFC9
:1053B00002E008C8121F08C1002AFAD170477047DE
:1053C000002001E001C1121F002AFBD1704700003C
:1053D0000149086070470000F00200202DE9FF4FEE
:1053E0008DB00F460546002606E025280BD0DDE9E6
:1053F0000F1290476D1C761C28780028F5D111B04B
:105400003046BDE8F08F0024A246A1460122EC49B7
:1054100000E0044315F8013F203B02FA03F0084284
:10542000F7D128782A2810D06FF02F022878A0F121
:105430003001092914D80AEB8A0102EB410144F03A
:10544000020400EB010A6D1CF0E701CF5FEA000ADD
:1054500003D544F40054CAF1000A44F002046D1C60
:1054600028782E2817D115F8010F44F004042A28B3
:105470000ED06FF02F022878A0F1300109290AD848
:1054800009EB890102EB410100EB01096D1CF2E718
:1054900057F8049B6D1C28786C280FD006DC4C282C
:1054A00017D068280DD06A2814D104E0742810D0D1
:1054B0007A280FD10DE044F400140AE044F480147B
:1054C00001E044F440146978814202D104F580146B
:1054D0006D1C6D1C2A786E2A1FD00CDC632A31D01B
:1054E00004DC002A8BD0582A11D1A3E0642A68D0AA
:1054F000692A0CD165E0732A2ED004DC6F2A73D0A0
:10550000702A04D19BE0752A6FD0782A6ED010469D
:10551000DDE90F129047761C50E1C4F302500228D7
:1055200006D0032809D0042801CF09D0066045E140
:1055300001CFF117C0E9006140E101CF06803DE1F4
:1055400006703BE117F8040B8DF8000000208DF881
:105550000100EB46012003E057F804BB4FF0FF3099
:1055600061074FF0000102D40DE008F10101884607
:1055700049450FDA8045F8DB1BF808100029F4D103
:1055800008E008F1010188468142FADB1BF80810A7
:105590000029F6D1DDE90F23AAEB08008146214658
:1055A00000F036F9304400EB080604E0DDE90F12A4
:1055B0001BF8010B9047B8F10108F7D22146484685
:1055C000F7E00A21C4F302534FF0000B0891022BBD
:1055D00004D001CFC117032B09D00AE0FF1D27F02B
:1055E0000707F7E8020108E032E01FE020E000B220
:1055F000C117042B01D140B2C117031E71F1000382
:1056000007DA4FF0000CD0EB0C006CEB01012D23FE
:1056100002E0230504D52B238DF82430012303E079
:10562000E30701D02023F7E7984658E00A2110E06D
:1056300010210EE010204FF0000B08900CE010211C
:105640004FF0000B44F004044FF00809089103E008
:1056500008214FF0000B0891C4F30253022B04D031
:1056600001CF0021032B06D006E0FF1D27F007071E
:10567000F7E8020103E080B2042B00D1C0B24FF082
:10568000000823072BD5702A07D0DDF820C08CF046
:10569000100C5CEA0B0C05D00EE040238DF8243092
:1056A000012308E050EA010306D030238DF82430AE
:1056B0008DF8252002239846DDF820C08CF0080CD8
:1056C0005CEA0B0C0BD150EA010301D1630706D54C
:1056D00030238DF824304FF00108A9F10109582A30
:1056E00004D038A20B9208AA0A920BE03AA2F9E77A
:1056F0005B46089AFBF704F80B9B9B5C0A9A521EC8
:105700000A92137050EA0102F2D10A98ADEB000040
:1057100000F1200B600702D524F4803401E04FF043
:105720000109D94502DDA9EB0B0000E0002000EBE8
:105730000B0141440890AAEB010AE00306D4DDE91D
:105740000F232146504600F063F806444FF000094D
:1057500008E009A911F80900DDE90F12904709F1E5
:105760000109761CC145F4DBE0030CD5DDE90F230C
:105770002146504600F04CF8064404E0DDE90F12E3
:1057800030209047761C0899481E08900029F5DCC7
:1057900008E00A980A990078491C0A91DDE90F127D
:1057A0009047761CBBF10001ABF1010BF1DC214607
:1057B0005046DDE90F2300F019F806446D1C1BE686
:1057C00009280100303132333435363738396162D7
:1057D000636465660000000030313233343536379B
:1057E0003839414243444546000000002DE9F0416C
:1057F000044600251E461746880404D405E03946B1
:105800002020B0476D1C641EF9D52846BDE8F08104
:105810002DE9F041044600251E469046C80301D5F7
:10582000302700E02027880404D505E041463846AB
:10583000B0476D1C641EF9D52846BDE8F081000014
:1058400071B58BB00024364D4FF47A7628E02046AF
:10585000FAF7D0FE0023334A0DF1140C04938CE8C0
:1058600034004FF03332304B8DE80F000AAA09A9FB
:1058700008A8FEF733FAFBF773FA0120FCF705FEE0
:10588000BDF82C00FBF792FFBDF82C00C0EB001018
:105890004000B0FBF6F0401CFCF7F7FD641CA4B21E
:1058A000BDF82C008442D2D3002432E02046FAF71F
:1058B000A1FE4FF066321D4BFAF79FFDBDF82C207C
:1058C000184B121B92B2CDE906250022CDE9042324
:1058D000154A4FF03333CDE90232CDE900010AAA6F
:1058E00009A908A8FEF7FAF9FBF73AFA0120FCF734
:1058F000CCFDBDF82C00FBF759FFBDF82C00C0EB28
:1059000000104000B0FBF6F0401CFCF7BEFD641C2C
:10591000A4B2BDF82C008442C8D30CB070BD000006
:10592000F00500200000F03F3333D33F6666F63FBA
:105930002DE9F1478BB000244FF06636DFF83C814B
:105940004F4D4FF47A7945E02046FAF753FE324640
:105950004346FAF752FD074600234A4A05A8049336
:1059600080E834008A46484B4FF03332CDE9007A64
:10597000CDE902230AAA09A908A8FEF7AFF9BDF8E4
:105980002C200023121B92B2CDE906253D4A09A91D
:10599000CDE904323C4A4FF03333CDE90232CDE950
:1059A000007A0AAA08A8FEF799F9FBF7D9F90120AD
:1059B000FCF76BFDBDF82C00FBF7F8FEBDF82C00E2
:1059C000C0EB00104100B1FBF9F0401CFCF75DFD9D
:1059D000641CA4B2BDF82C008442B5D3002445E079
:1059E0002046FAF707FE32464346FAF706FDBDF8B1
:1059F0002C208A460746121B92B2CDE90625214A81
:105A00000023CDE90432204A4FF03333CDE902328E
:105A1000CDE9007A0AAA09A908A8FEF75FF9194A90
:105A20000023CDE90432184A4FF03333CDE9023276
:105A3000CDE90645CDE9007A0AAA09A908A8FEF72A
:105A40004DF9FBF78DF90120FCF71FFDBDF82C0087
:105A5000FBF7ACFEBDF82C00C0EB00104100B1FB21
:105A6000F9F0401CFCF711FD641CA4B2BDF82C0039
:105A70008442B5D30CB0BDE8F08700006666F63FFF
:105A8000F00500200000F03F3333D33F13B54FF64D
:105A9000FF73012269460248FDF71AFF00981CBDFA
:105AA0008404002090B0FCF7F1FDFEF732FCFEF715
:105AB00043FAFEF723FAFEF749FBFEF785FBFEF7F4
:105AC000EBF9FEF7EFFAFEF7BBFAFEF7A5FBFEF7E0
:105AD00083FA142211496846FAF792FB00216846BE
